{
	"contracts/SimpleStorage.sol": {
		"SimpleStorage": {
			"abi": [
				{
					"inputs": [],
					"name": "add",
					"outputs": [
						{
							"internalType": "int256",
							"name": "",
							"type": "int256"
						}
					],
					"stateMutability": "pure",
					"type": "function"
				},
				{
					"inputs": [],
					"name": "myFavNum",
					"outputs": [
						{
							"internalType": "uint256",
							"name": "",
							"type": "uint256"
						}
					],
					"stateMutability": "view",
					"type": "function"
				},
				{
					"inputs": [],
					"name": "people",
					"outputs": [
						{
							"internalType": "string",
							"name": "firstName",
							"type": "string"
						},
						{
							"internalType": "uint256",
							"name": "age",
							"type": "uint256"
						}
					],
					"stateMutability": "view",
					"type": "function"
				},
				{
					"inputs": [
						{
							"internalType": "uint256",
							"name": "",
							"type": "uint256"
						}
					],
					"name": "peoplesArray",
					"outputs": [
						{
							"internalType": "string",
							"name": "firstName",
							"type": "string"
						},
						{
							"internalType": "uint256",
							"name": "age",
							"type": "uint256"
						}
					],
					"stateMutability": "view",
					"type": "function"
				},
				{
					"inputs": [],
					"name": "retrive",
					"outputs": [
						{
							"internalType": "uint256",
							"name": "",
							"type": "uint256"
						}
					],
					"stateMutability": "view",
					"type": "function"
				},
				{
					"inputs": [
						{
							"internalType": "string",
							"name": "_firstName",
							"type": "string"
						},
						{
							"internalType": "uint256",
							"name": "_age",
							"type": "uint256"
						}
					],
					"name": "setPeopleArray",
					"outputs": [],
					"stateMutability": "nonpayable",
					"type": "function"
				},
				{
					"inputs": [
						{
							"internalType": "string",
							"name": "_firstName",
							"type": "string"
						},
						{
							"internalType": "uint256",
							"name": "_age",
							"type": "uint256"
						}
					],
					"name": "setPerson",
					"outputs": [],
					"stateMutability": "nonpayable",
					"type": "function"
				},
				{
					"inputs": [
						{
							"internalType": "uint256",
							"name": "fav_num",
							"type": "uint256"
						}
					],
					"name": "store",
					"outputs": [],
					"stateMutability": "nonpayable",
					"type": "function"
				}
			],
			"devdoc": {
				"kind": "dev",
				"methods": {},
				"version": 1
			},
			"evm": {
				"assembly": "    /* \"contracts/SimpleStorage.sol\":455:1278  contract SimpleStorage {... */\n  mstore(0x40, 0x80)\n  callvalue\n  dup1\n  iszero\n  tag_1\n  jumpi\n  0x00\n  dup1\n  revert\ntag_1:\n  pop\n  dataSize(sub_0)\n  dup1\n  dataOffset(sub_0)\n  0x00\n  codecopy\n  0x00\n  return\nstop\n\nsub_0: assembly {\n        /* \"contracts/SimpleStorage.sol\":455:1278  contract SimpleStorage {... */\n      mstore(0x40, 0x80)\n      callvalue\n      dup1\n      iszero\n      tag_1\n      jumpi\n      0x00\n      dup1\n      revert\n    tag_1:\n      pop\n      jumpi(tag_2, lt(calldatasize, 0x04))\n      shr(0xe0, calldataload(0x00))\n      dup1\n      0x81a26b7e\n      gt\n      tag_11\n      jumpi\n      dup1\n      0x81a26b7e\n      eq\n      tag_7\n      jumpi\n      dup1\n      0xa6b7fc5b\n      eq\n      tag_8\n      jumpi\n      dup1\n      0xcd552339\n      eq\n      tag_9\n      jumpi\n      dup1\n      0xd378566c\n      eq\n      tag_10\n      jumpi\n      jump(tag_2)\n    tag_11:\n      dup1\n      0x2fda437e\n      eq\n      tag_3\n      jumpi\n      dup1\n      0x4f2be91f\n      eq\n      tag_4\n      jumpi\n      dup1\n      0x6057361d\n      eq\n      tag_5\n      jumpi\n      dup1\n      0x783f6af5\n      eq\n      tag_6\n      jumpi\n    tag_2:\n      0x00\n      dup1\n      revert\n        /* \"contracts/SimpleStorage.sol\":985:1100  function setPerson(string memory _firstName, uint _age) public {... */\n    tag_3:\n      tag_12\n      0x04\n      dup1\n      calldatasize\n      sub\n      dup2\n      add\n      swap1\n      tag_13\n      swap2\n      swap1\n      tag_14\n      jump\t// in\n    tag_13:\n      tag_15\n      jump\t// in\n    tag_12:\n      stop\n        /* \"contracts/SimpleStorage.sol\":733:803  function add() public pure returns(int){... */\n    tag_4:\n      tag_16\n      tag_17\n      jump\t// in\n    tag_16:\n      mload(0x40)\n      tag_18\n      swap2\n      swap1\n      tag_19\n      jump\t// in\n    tag_18:\n      mload(0x40)\n      dup1\n      swap2\n      sub\n      swap1\n      return\n        /* \"contracts/SimpleStorage.sol\":518:635  function store (uint256 fav_num) public {... */\n    tag_5:\n      tag_20\n      0x04\n      dup1\n      calldatasize\n      sub\n      dup2\n      add\n      swap1\n      tag_21\n      swap2\n      swap1\n      tag_22\n      jump\t// in\n    tag_21:\n      tag_23\n      jump\t// in\n    tag_20:\n      stop\n        /* \"contracts/SimpleStorage.sol\":956:976  Person public people */\n    tag_6:\n      tag_24\n      tag_25\n      jump\t// in\n    tag_24:\n      mload(0x40)\n      tag_26\n      swap3\n      swap2\n      swap1\n      tag_27\n      jump\t// in\n    tag_26:\n      mload(0x40)\n      dup1\n      swap2\n      sub\n      swap1\n      return\n        /* \"contracts/SimpleStorage.sol\":1108:1136  Person[] public peoplesArray */\n    tag_7:\n      tag_28\n      0x04\n      dup1\n      calldatasize\n      sub\n      dup2\n      add\n      swap1\n      tag_29\n      swap2\n      swap1\n      tag_22\n      jump\t// in\n    tag_29:\n      tag_30\n      jump\t// in\n    tag_28:\n      mload(0x40)\n      tag_31\n      swap3\n      swap2\n      swap1\n      tag_27\n      jump\t// in\n    tag_31:\n      mload(0x40)\n      dup1\n      swap2\n      sub\n      swap1\n      return\n        /* \"contracts/SimpleStorage.sol\":644:725  function retrive() public view returns(uint256){... */\n    tag_8:\n      tag_32\n      tag_33\n      jump\t// in\n    tag_32:\n      mload(0x40)\n      tag_34\n      swap2\n      swap1\n      tag_35\n      jump\t// in\n    tag_34:\n      mload(0x40)\n      dup1\n      swap2\n      sub\n      swap1\n      return\n        /* \"contracts/SimpleStorage.sol\":486:509  uint256 public myFavNum */\n    tag_9:\n      tag_36\n      tag_37\n      jump\t// in\n    tag_36:\n      mload(0x40)\n      tag_38\n      swap2\n      swap1\n      tag_35\n      jump\t// in\n    tag_38:\n      mload(0x40)\n      dup1\n      swap2\n      sub\n      swap1\n      return\n        /* \"contracts/SimpleStorage.sol\":1145:1275  function setPeopleArray(string memory _firstName, uint _age) public {... */\n    tag_10:\n      tag_39\n      0x04\n      dup1\n      calldatasize\n      sub\n      dup2\n      add\n      swap1\n      tag_40\n      swap2\n      swap1\n      tag_14\n      jump\t// in\n    tag_40:\n      tag_41\n      jump\t// in\n    tag_39:\n      stop\n        /* \"contracts/SimpleStorage.sol\":985:1100  function setPerson(string memory _firstName, uint _age) public {... */\n    tag_15:\n        /* \"contracts/SimpleStorage.sol\":1068:1092  Person(_firstName, _age) */\n      mload(0x40)\n      dup1\n      0x40\n      add\n      0x40\n      mstore\n      dup1\n        /* \"contracts/SimpleStorage.sol\":1075:1085  _firstName */\n      dup4\n        /* \"contracts/SimpleStorage.sol\":1068:1092  Person(_firstName, _age) */\n      dup2\n      mstore\n      0x20\n      add\n        /* \"contracts/SimpleStorage.sol\":1087:1091  _age */\n      dup3\n        /* \"contracts/SimpleStorage.sol\":1068:1092  Person(_firstName, _age) */\n      dup2\n      mstore\n      pop\n        /* \"contracts/SimpleStorage.sol\":1059:1065  people */\n      0x01\n        /* \"contracts/SimpleStorage.sol\":1059:1092  people = Person(_firstName, _age) */\n      0x00\n      dup3\n      add\n      mload\n      dup2\n      0x00\n      add\n      swap1\n      dup2\n      tag_43\n      swap2\n      swap1\n      tag_44\n      jump\t// in\n    tag_43:\n      pop\n      0x20\n      dup3\n      add\n      mload\n      dup2\n      0x01\n      add\n      sstore\n      swap1\n      pop\n      pop\n        /* \"contracts/SimpleStorage.sol\":985:1100  function setPerson(string memory _firstName, uint _age) public {... */\n      pop\n      pop\n      jump\t// out\n        /* \"contracts/SimpleStorage.sol\":733:803  function add() public pure returns(int){... */\n    tag_17:\n        /* \"contracts/SimpleStorage.sol\":768:771  int */\n      0x00\n        /* \"contracts/SimpleStorage.sol\":790:795  1 + 1 */\n      0x02\n        /* \"contracts/SimpleStorage.sol\":783:795  return 1 + 1 */\n      swap1\n      pop\n        /* \"contracts/SimpleStorage.sol\":733:803  function add() public pure returns(int){... */\n      swap1\n      jump\t// out\n        /* \"contracts/SimpleStorage.sol\":518:635  function store (uint256 fav_num) public {... */\n    tag_23:\n        /* \"contracts/SimpleStorage.sol\":580:587  fav_num */\n      dup1\n        /* \"contracts/SimpleStorage.sol\":569:577  myFavNum */\n      0x00\n        /* \"contracts/SimpleStorage.sol\":569:587  myFavNum = fav_num */\n      dup2\n      swap1\n      sstore\n      pop\n        /* \"contracts/SimpleStorage.sol\":620:627  fav_num */\n      dup1\n        /* \"contracts/SimpleStorage.sol\":609:617  myFavNum */\n      sload(0x00)\n        /* \"contracts/SimpleStorage.sol\":609:627  myFavNum + fav_num */\n      tag_47\n      swap2\n      swap1\n      tag_48\n      jump\t// in\n    tag_47:\n        /* \"contracts/SimpleStorage.sol\":598:606  myFavNum */\n      0x00\n        /* \"contracts/SimpleStorage.sol\":598:627  myFavNum = myFavNum + fav_num */\n      dup2\n      swap1\n      sstore\n      pop\n        /* \"contracts/SimpleStorage.sol\":518:635  function store (uint256 fav_num) public {... */\n      pop\n      jump\t// out\n        /* \"contracts/SimpleStorage.sol\":956:976  Person public people */\n    tag_25:\n      0x01\n      dup1\n      0x00\n      add\n      dup1\n      sload\n      tag_49\n      swap1\n      tag_50\n      jump\t// in\n    tag_49:\n      dup1\n      0x1f\n      add\n      0x20\n      dup1\n      swap2\n      div\n      mul\n      0x20\n      add\n      mload(0x40)\n      swap1\n      dup2\n      add\n      0x40\n      mstore\n      dup1\n      swap3\n      swap2\n      swap1\n      dup2\n      dup2\n      mstore\n      0x20\n      add\n      dup3\n      dup1\n      sload\n      tag_51\n      swap1\n      tag_50\n      jump\t// in\n    tag_51:\n      dup1\n      iszero\n      tag_52\n      jumpi\n      dup1\n      0x1f\n      lt\n      tag_53\n      jumpi\n      0x0100\n      dup1\n      dup4\n      sload\n      div\n      mul\n      dup4\n      mstore\n      swap2\n      0x20\n      add\n      swap2\n      jump(tag_52)\n    tag_53:\n      dup3\n      add\n      swap2\n      swap1\n      0x00\n      mstore\n      keccak256(0x00, 0x20)\n      swap1\n    tag_54:\n      dup2\n      sload\n      dup2\n      mstore\n      swap1\n      0x01\n      add\n      swap1\n      0x20\n      add\n      dup1\n      dup4\n      gt\n      tag_54\n      jumpi\n      dup3\n      swap1\n      sub\n      0x1f\n      and\n      dup3\n      add\n      swap2\n    tag_52:\n      pop\n      pop\n      pop\n      pop\n      pop\n      swap1\n      dup1\n      0x01\n      add\n      sload\n      swap1\n      pop\n      dup3\n      jump\t// out\n        /* \"contracts/SimpleStorage.sol\":1108:1136  Person[] public peoplesArray */\n    tag_30:\n      0x03\n      dup2\n      dup2\n      sload\n      dup2\n      lt\n      tag_55\n      jumpi\n      0x00\n      dup1\n      revert\n    tag_55:\n      swap1\n      0x00\n      mstore\n      keccak256(0x00, 0x20)\n      swap1\n      0x02\n      mul\n      add\n      0x00\n      swap2\n      pop\n      swap1\n      pop\n      dup1\n      0x00\n      add\n      dup1\n      sload\n      tag_57\n      swap1\n      tag_50\n      jump\t// in\n    tag_57:\n      dup1\n      0x1f\n      add\n      0x20\n      dup1\n      swap2\n      div\n      mul\n      0x20\n      add\n      mload(0x40)\n      swap1\n      dup2\n      add\n      0x40\n      mstore\n      dup1\n      swap3\n      swap2\n      swap1\n      dup2\n      dup2\n      mstore\n      0x20\n      add\n      dup3\n      dup1\n      sload\n      tag_58\n      swap1\n      tag_50\n      jump\t// in\n    tag_58:\n      dup1\n      iszero\n      tag_59\n      jumpi\n      dup1\n      0x1f\n      lt\n      tag_60\n      jumpi\n      0x0100\n      dup1\n      dup4\n      sload\n      div\n      mul\n      dup4\n      mstore\n      swap2\n      0x20\n      add\n      swap2\n      jump(tag_59)\n    tag_60:\n      dup3\n      add\n      swap2\n      swap1\n      0x00\n      mstore\n      keccak256(0x00, 0x20)\n      swap1\n    tag_61:\n      dup2\n      sload\n      dup2\n      mstore\n      swap1\n      0x01\n      add\n      swap1\n      0x20\n      add\n      dup1\n      dup4\n      gt\n      tag_61\n      jumpi\n      dup3\n      swap1\n      sub\n      0x1f\n      and\n      dup3\n      add\n      swap2\n    tag_59:\n      pop\n      pop\n      pop\n      pop\n      pop\n      swap1\n      dup1\n      0x01\n      add\n      sload\n      swap1\n      pop\n      dup3\n      jump\t// out\n        /* \"contracts/SimpleStorage.sol\":644:725  function retrive() public view returns(uint256){... */\n    tag_33:\n        /* \"contracts/SimpleStorage.sol\":683:690  uint256 */\n      0x00\n        /* \"contracts/SimpleStorage.sol\":709:717  myFavNum */\n      dup1\n      sload\n        /* \"contracts/SimpleStorage.sol\":702:717  return myFavNum */\n      swap1\n      pop\n        /* \"contracts/SimpleStorage.sol\":644:725  function retrive() public view returns(uint256){... */\n      swap1\n      jump\t// out\n        /* \"contracts/SimpleStorage.sol\":486:509  uint256 public myFavNum */\n    tag_37:\n      sload(0x00)\n      dup2\n      jump\t// out\n        /* \"contracts/SimpleStorage.sol\":1145:1275  function setPeopleArray(string memory _firstName, uint _age) public {... */\n    tag_41:\n        /* \"contracts/SimpleStorage.sol\":1224:1236  peoplesArray */\n      0x03\n        /* \"contracts/SimpleStorage.sol\":1242:1266  Person(_firstName, _age) */\n      mload(0x40)\n      dup1\n      0x40\n      add\n      0x40\n      mstore\n      dup1\n        /* \"contracts/SimpleStorage.sol\":1249:1259  _firstName */\n      dup5\n        /* \"contracts/SimpleStorage.sol\":1242:1266  Person(_firstName, _age) */\n      dup2\n      mstore\n      0x20\n      add\n        /* \"contracts/SimpleStorage.sol\":1261:1265  _age */\n      dup4\n        /* \"contracts/SimpleStorage.sol\":1242:1266  Person(_firstName, _age) */\n      dup2\n      mstore\n      pop\n        /* \"contracts/SimpleStorage.sol\":1224:1267  peoplesArray.push(Person(_firstName, _age)) */\n      swap1\n      dup1\n      0x01\n      dup2\n      sload\n      add\n      dup1\n      dup3\n      sstore\n      dup1\n      swap2\n      pop\n      pop\n      0x01\n      swap1\n      sub\n      swap1\n      0x00\n      mstore\n      keccak256(0x00, 0x20)\n      swap1\n      0x02\n      mul\n      add\n      0x00\n      swap1\n      swap2\n      swap1\n      swap2\n      swap1\n      swap2\n      pop\n      0x00\n      dup3\n      add\n      mload\n      dup2\n      0x00\n      add\n      swap1\n      dup2\n      tag_65\n      swap2\n      swap1\n      tag_44\n      jump\t// in\n    tag_65:\n      pop\n      0x20\n      dup3\n      add\n      mload\n      dup2\n      0x01\n      add\n      sstore\n      pop\n      pop\n        /* \"contracts/SimpleStorage.sol\":1145:1275  function setPeopleArray(string memory _firstName, uint _age) public {... */\n      pop\n      pop\n      jump\t// out\n        /* \"#utility.yul\":7:82   */\n    tag_66:\n        /* \"#utility.yul\":40:46   */\n      0x00\n        /* \"#utility.yul\":73:75   */\n      0x40\n        /* \"#utility.yul\":67:76   */\n      mload\n        /* \"#utility.yul\":57:76   */\n      swap1\n      pop\n        /* \"#utility.yul\":7:82   */\n      swap1\n      jump\t// out\n        /* \"#utility.yul\":88:205   */\n    tag_67:\n        /* \"#utility.yul\":197:198   */\n      0x00\n        /* \"#utility.yul\":194:195   */\n      dup1\n        /* \"#utility.yul\":187:199   */\n      revert\n        /* \"#utility.yul\":211:328   */\n    tag_68:\n        /* \"#utility.yul\":320:321   */\n      0x00\n        /* \"#utility.yul\":317:318   */\n      dup1\n        /* \"#utility.yul\":310:322   */\n      revert\n        /* \"#utility.yul\":334:451   */\n    tag_69:\n        /* \"#utility.yul\":443:444   */\n      0x00\n        /* \"#utility.yul\":440:441   */\n      dup1\n        /* \"#utility.yul\":433:445   */\n      revert\n        /* \"#utility.yul\":457:574   */\n    tag_70:\n        /* \"#utility.yul\":566:567   */\n      0x00\n        /* \"#utility.yul\":563:564   */\n      dup1\n        /* \"#utility.yul\":556:568   */\n      revert\n        /* \"#utility.yul\":580:682   */\n    tag_71:\n        /* \"#utility.yul\":621:627   */\n      0x00\n        /* \"#utility.yul\":672:674   */\n      0x1f\n        /* \"#utility.yul\":668:675   */\n      not\n        /* \"#utility.yul\":663:665   */\n      0x1f\n        /* \"#utility.yul\":656:661   */\n      dup4\n        /* \"#utility.yul\":652:666   */\n      add\n        /* \"#utility.yul\":648:676   */\n      and\n        /* \"#utility.yul\":638:676   */\n      swap1\n      pop\n        /* \"#utility.yul\":580:682   */\n      swap2\n      swap1\n      pop\n      jump\t// out\n        /* \"#utility.yul\":688:868   */\n    tag_72:\n        /* \"#utility.yul\":736:813   */\n      0x4e487b7100000000000000000000000000000000000000000000000000000000\n        /* \"#utility.yul\":733:734   */\n      0x00\n        /* \"#utility.yul\":726:814   */\n      mstore\n        /* \"#utility.yul\":833:837   */\n      0x41\n        /* \"#utility.yul\":830:831   */\n      0x04\n        /* \"#utility.yul\":823:838   */\n      mstore\n        /* \"#utility.yul\":857:861   */\n      0x24\n        /* \"#utility.yul\":854:855   */\n      0x00\n        /* \"#utility.yul\":847:862   */\n      revert\n        /* \"#utility.yul\":874:1155   */\n    tag_73:\n        /* \"#utility.yul\":957:984   */\n      tag_115\n        /* \"#utility.yul\":979:983   */\n      dup3\n        /* \"#utility.yul\":957:984   */\n      tag_71\n      jump\t// in\n    tag_115:\n        /* \"#utility.yul\":949:955   */\n      dup2\n        /* \"#utility.yul\":945:985   */\n      add\n        /* \"#utility.yul\":1087:1093   */\n      dup2\n        /* \"#utility.yul\":1075:1085   */\n      dup2\n        /* \"#utility.yul\":1072:1094   */\n      lt\n        /* \"#utility.yul\":1051:1069   */\n      0xffffffffffffffff\n        /* \"#utility.yul\":1039:1049   */\n      dup3\n        /* \"#utility.yul\":1036:1070   */\n      gt\n        /* \"#utility.yul\":1033:1095   */\n      or\n        /* \"#utility.yul\":1030:1118   */\n      iszero\n      tag_116\n      jumpi\n        /* \"#utility.yul\":1098:1116   */\n      tag_117\n      tag_72\n      jump\t// in\n    tag_117:\n        /* \"#utility.yul\":1030:1118   */\n    tag_116:\n        /* \"#utility.yul\":1138:1148   */\n      dup1\n        /* \"#utility.yul\":1134:1136   */\n      0x40\n        /* \"#utility.yul\":1127:1149   */\n      mstore\n        /* \"#utility.yul\":917:1155   */\n      pop\n        /* \"#utility.yul\":874:1155   */\n      pop\n      pop\n      jump\t// out\n        /* \"#utility.yul\":1161:1290   */\n    tag_74:\n        /* \"#utility.yul\":1195:1201   */\n      0x00\n        /* \"#utility.yul\":1222:1242   */\n      tag_119\n      tag_66\n      jump\t// in\n    tag_119:\n        /* \"#utility.yul\":1212:1242   */\n      swap1\n      pop\n        /* \"#utility.yul\":1251:1284   */\n      tag_120\n        /* \"#utility.yul\":1279:1283   */\n      dup3\n        /* \"#utility.yul\":1271:1277   */\n      dup3\n        /* \"#utility.yul\":1251:1284   */\n      tag_73\n      jump\t// in\n    tag_120:\n        /* \"#utility.yul\":1161:1290   */\n      swap2\n      swap1\n      pop\n      jump\t// out\n        /* \"#utility.yul\":1296:1604   */\n    tag_75:\n        /* \"#utility.yul\":1358:1362   */\n      0x00\n        /* \"#utility.yul\":1448:1466   */\n      0xffffffffffffffff\n        /* \"#utility.yul\":1440:1446   */\n      dup3\n        /* \"#utility.yul\":1437:1467   */\n      gt\n        /* \"#utility.yul\":1434:1490   */\n      iszero\n      tag_122\n      jumpi\n        /* \"#utility.yul\":1470:1488   */\n      tag_123\n      tag_72\n      jump\t// in\n    tag_123:\n        /* \"#utility.yul\":1434:1490   */\n    tag_122:\n        /* \"#utility.yul\":1508:1537   */\n      tag_124\n        /* \"#utility.yul\":1530:1536   */\n      dup3\n        /* \"#utility.yul\":1508:1537   */\n      tag_71\n      jump\t// in\n    tag_124:\n        /* \"#utility.yul\":1500:1537   */\n      swap1\n      pop\n        /* \"#utility.yul\":1592:1596   */\n      0x20\n        /* \"#utility.yul\":1586:1590   */\n      dup2\n        /* \"#utility.yul\":1582:1597   */\n      add\n        /* \"#utility.yul\":1574:1597   */\n      swap1\n      pop\n        /* \"#utility.yul\":1296:1604   */\n      swap2\n      swap1\n      pop\n      jump\t// out\n        /* \"#utility.yul\":1610:1758   */\n    tag_76:\n        /* \"#utility.yul\":1708:1714   */\n      dup3\n        /* \"#utility.yul\":1703:1706   */\n      dup2\n        /* \"#utility.yul\":1698:1701   */\n      dup4\n        /* \"#utility.yul\":1685:1715   */\n      calldatacopy\n        /* \"#utility.yul\":1749:1750   */\n      0x00\n        /* \"#utility.yul\":1740:1746   */\n      dup4\n        /* \"#utility.yul\":1735:1738   */\n      dup4\n        /* \"#utility.yul\":1731:1747   */\n      add\n        /* \"#utility.yul\":1724:1751   */\n      mstore\n        /* \"#utility.yul\":1610:1758   */\n      pop\n      pop\n      pop\n      jump\t// out\n        /* \"#utility.yul\":1764:2189   */\n    tag_77:\n        /* \"#utility.yul\":1842:1847   */\n      0x00\n        /* \"#utility.yul\":1867:1933   */\n      tag_127\n        /* \"#utility.yul\":1883:1932   */\n      tag_128\n        /* \"#utility.yul\":1925:1931   */\n      dup5\n        /* \"#utility.yul\":1883:1932   */\n      tag_75\n      jump\t// in\n    tag_128:\n        /* \"#utility.yul\":1867:1933   */\n      tag_74\n      jump\t// in\n    tag_127:\n        /* \"#utility.yul\":1858:1933   */\n      swap1\n      pop\n        /* \"#utility.yul\":1956:1962   */\n      dup3\n        /* \"#utility.yul\":1949:1954   */\n      dup2\n        /* \"#utility.yul\":1942:1963   */\n      mstore\n        /* \"#utility.yul\":1994:1998   */\n      0x20\n        /* \"#utility.yul\":1987:1992   */\n      dup2\n        /* \"#utility.yul\":1983:1999   */\n      add\n        /* \"#utility.yul\":2032:2035   */\n      dup5\n        /* \"#utility.yul\":2023:2029   */\n      dup5\n        /* \"#utility.yul\":2018:2021   */\n      dup5\n        /* \"#utility.yul\":2014:2030   */\n      add\n        /* \"#utility.yul\":2011:2036   */\n      gt\n        /* \"#utility.yul\":2008:2120   */\n      iszero\n      tag_129\n      jumpi\n        /* \"#utility.yul\":2039:2118   */\n      tag_130\n      tag_70\n      jump\t// in\n    tag_130:\n        /* \"#utility.yul\":2008:2120   */\n    tag_129:\n        /* \"#utility.yul\":2129:2183   */\n      tag_131\n        /* \"#utility.yul\":2176:2182   */\n      dup5\n        /* \"#utility.yul\":2171:2174   */\n      dup3\n        /* \"#utility.yul\":2166:2169   */\n      dup6\n        /* \"#utility.yul\":2129:2183   */\n      tag_76\n      jump\t// in\n    tag_131:\n        /* \"#utility.yul\":1848:2189   */\n      pop\n        /* \"#utility.yul\":1764:2189   */\n      swap4\n      swap3\n      pop\n      pop\n      pop\n      jump\t// out\n        /* \"#utility.yul\":2209:2549   */\n    tag_78:\n        /* \"#utility.yul\":2265:2270   */\n      0x00\n        /* \"#utility.yul\":2314:2317   */\n      dup3\n        /* \"#utility.yul\":2307:2311   */\n      0x1f\n        /* \"#utility.yul\":2299:2305   */\n      dup4\n        /* \"#utility.yul\":2295:2312   */\n      add\n        /* \"#utility.yul\":2291:2318   */\n      slt\n        /* \"#utility.yul\":2281:2403   */\n      tag_133\n      jumpi\n        /* \"#utility.yul\":2322:2401   */\n      tag_134\n      tag_69\n      jump\t// in\n    tag_134:\n        /* \"#utility.yul\":2281:2403   */\n    tag_133:\n        /* \"#utility.yul\":2439:2445   */\n      dup2\n        /* \"#utility.yul\":2426:2446   */\n      calldataload\n        /* \"#utility.yul\":2464:2543   */\n      tag_135\n        /* \"#utility.yul\":2539:2542   */\n      dup5\n        /* \"#utility.yul\":2531:2537   */\n      dup3\n        /* \"#utility.yul\":2524:2528   */\n      0x20\n        /* \"#utility.yul\":2516:2522   */\n      dup7\n        /* \"#utility.yul\":2512:2529   */\n      add\n        /* \"#utility.yul\":2464:2543   */\n      tag_77\n      jump\t// in\n    tag_135:\n        /* \"#utility.yul\":2455:2543   */\n      swap2\n      pop\n        /* \"#utility.yul\":2271:2549   */\n      pop\n        /* \"#utility.yul\":2209:2549   */\n      swap3\n      swap2\n      pop\n      pop\n      jump\t// out\n        /* \"#utility.yul\":2555:2632   */\n    tag_79:\n        /* \"#utility.yul\":2592:2599   */\n      0x00\n        /* \"#utility.yul\":2621:2626   */\n      dup2\n        /* \"#utility.yul\":2610:2626   */\n      swap1\n      pop\n        /* \"#utility.yul\":2555:2632   */\n      swap2\n      swap1\n      pop\n      jump\t// out\n        /* \"#utility.yul\":2638:2760   */\n    tag_80:\n        /* \"#utility.yul\":2711:2735   */\n      tag_138\n        /* \"#utility.yul\":2729:2734   */\n      dup2\n        /* \"#utility.yul\":2711:2735   */\n      tag_79\n      jump\t// in\n    tag_138:\n        /* \"#utility.yul\":2704:2709   */\n      dup2\n        /* \"#utility.yul\":2701:2736   */\n      eq\n        /* \"#utility.yul\":2691:2754   */\n      tag_139\n      jumpi\n        /* \"#utility.yul\":2750:2751   */\n      0x00\n        /* \"#utility.yul\":2747:2748   */\n      dup1\n        /* \"#utility.yul\":2740:2752   */\n      revert\n        /* \"#utility.yul\":2691:2754   */\n    tag_139:\n        /* \"#utility.yul\":2638:2760   */\n      pop\n      jump\t// out\n        /* \"#utility.yul\":2766:2905   */\n    tag_81:\n        /* \"#utility.yul\":2812:2817   */\n      0x00\n        /* \"#utility.yul\":2850:2856   */\n      dup2\n        /* \"#utility.yul\":2837:2857   */\n      calldataload\n        /* \"#utility.yul\":2828:2857   */\n      swap1\n      pop\n        /* \"#utility.yul\":2866:2899   */\n      tag_141\n        /* \"#utility.yul\":2893:2898   */\n      dup2\n        /* \"#utility.yul\":2866:2899   */\n      tag_80\n      jump\t// in\n    tag_141:\n        /* \"#utility.yul\":2766:2905   */\n      swap3\n      swap2\n      pop\n      pop\n      jump\t// out\n        /* \"#utility.yul\":2911:3565   */\n    tag_14:\n        /* \"#utility.yul\":2989:2995   */\n      0x00\n        /* \"#utility.yul\":2997:3003   */\n      dup1\n        /* \"#utility.yul\":3046:3048   */\n      0x40\n        /* \"#utility.yul\":3034:3043   */\n      dup4\n        /* \"#utility.yul\":3025:3032   */\n      dup6\n        /* \"#utility.yul\":3021:3044   */\n      sub\n        /* \"#utility.yul\":3017:3049   */\n      slt\n        /* \"#utility.yul\":3014:3133   */\n      iszero\n      tag_143\n      jumpi\n        /* \"#utility.yul\":3052:3131   */\n      tag_144\n      tag_67\n      jump\t// in\n    tag_144:\n        /* \"#utility.yul\":3014:3133   */\n    tag_143:\n        /* \"#utility.yul\":3200:3201   */\n      0x00\n        /* \"#utility.yul\":3189:3198   */\n      dup4\n        /* \"#utility.yul\":3185:3202   */\n      add\n        /* \"#utility.yul\":3172:3203   */\n      calldataload\n        /* \"#utility.yul\":3230:3248   */\n      0xffffffffffffffff\n        /* \"#utility.yul\":3222:3228   */\n      dup2\n        /* \"#utility.yul\":3219:3249   */\n      gt\n        /* \"#utility.yul\":3216:3333   */\n      iszero\n      tag_145\n      jumpi\n        /* \"#utility.yul\":3252:3331   */\n      tag_146\n      tag_68\n      jump\t// in\n    tag_146:\n        /* \"#utility.yul\":3216:3333   */\n    tag_145:\n        /* \"#utility.yul\":3357:3420   */\n      tag_147\n        /* \"#utility.yul\":3412:3419   */\n      dup6\n        /* \"#utility.yul\":3403:3409   */\n      dup3\n        /* \"#utility.yul\":3392:3401   */\n      dup7\n        /* \"#utility.yul\":3388:3410   */\n      add\n        /* \"#utility.yul\":3357:3420   */\n      tag_78\n      jump\t// in\n    tag_147:\n        /* \"#utility.yul\":3347:3420   */\n      swap3\n      pop\n        /* \"#utility.yul\":3143:3430   */\n      pop\n        /* \"#utility.yul\":3469:3471   */\n      0x20\n        /* \"#utility.yul\":3495:3548   */\n      tag_148\n        /* \"#utility.yul\":3540:3547   */\n      dup6\n        /* \"#utility.yul\":3531:3537   */\n      dup3\n        /* \"#utility.yul\":3520:3529   */\n      dup7\n        /* \"#utility.yul\":3516:3538   */\n      add\n        /* \"#utility.yul\":3495:3548   */\n      tag_81\n      jump\t// in\n    tag_148:\n        /* \"#utility.yul\":3485:3548   */\n      swap2\n      pop\n        /* \"#utility.yul\":3440:3558   */\n      pop\n        /* \"#utility.yul\":2911:3565   */\n      swap3\n      pop\n      swap3\n      swap1\n      pop\n      jump\t// out\n        /* \"#utility.yul\":3571:3647   */\n    tag_82:\n        /* \"#utility.yul\":3607:3614   */\n      0x00\n        /* \"#utility.yul\":3636:3641   */\n      dup2\n        /* \"#utility.yul\":3625:3641   */\n      swap1\n      pop\n        /* \"#utility.yul\":3571:3647   */\n      swap2\n      swap1\n      pop\n      jump\t// out\n        /* \"#utility.yul\":3653:3768   */\n    tag_83:\n        /* \"#utility.yul\":3738:3761   */\n      tag_151\n        /* \"#utility.yul\":3755:3760   */\n      dup2\n        /* \"#utility.yul\":3738:3761   */\n      tag_82\n      jump\t// in\n    tag_151:\n        /* \"#utility.yul\":3733:3736   */\n      dup3\n        /* \"#utility.yul\":3726:3762   */\n      mstore\n        /* \"#utility.yul\":3653:3768   */\n      pop\n      pop\n      jump\t// out\n        /* \"#utility.yul\":3774:3992   */\n    tag_19:\n        /* \"#utility.yul\":3865:3869   */\n      0x00\n        /* \"#utility.yul\":3903:3905   */\n      0x20\n        /* \"#utility.yul\":3892:3901   */\n      dup3\n        /* \"#utility.yul\":3888:3906   */\n      add\n        /* \"#utility.yul\":3880:3906   */\n      swap1\n      pop\n        /* \"#utility.yul\":3916:3985   */\n      tag_153\n        /* \"#utility.yul\":3982:3983   */\n      0x00\n        /* \"#utility.yul\":3971:3980   */\n      dup4\n        /* \"#utility.yul\":3967:3984   */\n      add\n        /* \"#utility.yul\":3958:3964   */\n      dup5\n        /* \"#utility.yul\":3916:3985   */\n      tag_83\n      jump\t// in\n    tag_153:\n        /* \"#utility.yul\":3774:3992   */\n      swap3\n      swap2\n      pop\n      pop\n      jump\t// out\n        /* \"#utility.yul\":3998:4327   */\n    tag_22:\n        /* \"#utility.yul\":4057:4063   */\n      0x00\n        /* \"#utility.yul\":4106:4108   */\n      0x20\n        /* \"#utility.yul\":4094:4103   */\n      dup3\n        /* \"#utility.yul\":4085:4092   */\n      dup5\n        /* \"#utility.yul\":4081:4104   */\n      sub\n        /* \"#utility.yul\":4077:4109   */\n      slt\n        /* \"#utility.yul\":4074:4193   */\n      iszero\n      tag_155\n      jumpi\n        /* \"#utility.yul\":4112:4191   */\n      tag_156\n      tag_67\n      jump\t// in\n    tag_156:\n        /* \"#utility.yul\":4074:4193   */\n    tag_155:\n        /* \"#utility.yul\":4232:4233   */\n      0x00\n        /* \"#utility.yul\":4257:4310   */\n      tag_157\n        /* \"#utility.yul\":4302:4309   */\n      dup5\n        /* \"#utility.yul\":4293:4299   */\n      dup3\n        /* \"#utility.yul\":4282:4291   */\n      dup6\n        /* \"#utility.yul\":4278:4300   */\n      add\n        /* \"#utility.yul\":4257:4310   */\n      tag_81\n      jump\t// in\n    tag_157:\n        /* \"#utility.yul\":4247:4310   */\n      swap2\n      pop\n        /* \"#utility.yul\":4203:4320   */\n      pop\n        /* \"#utility.yul\":3998:4327   */\n      swap3\n      swap2\n      pop\n      pop\n      jump\t// out\n        /* \"#utility.yul\":4333:4432   */\n    tag_84:\n        /* \"#utility.yul\":4385:4391   */\n      0x00\n        /* \"#utility.yul\":4419:4424   */\n      dup2\n        /* \"#utility.yul\":4413:4425   */\n      mload\n        /* \"#utility.yul\":4403:4425   */\n      swap1\n      pop\n        /* \"#utility.yul\":4333:4432   */\n      swap2\n      swap1\n      pop\n      jump\t// out\n        /* \"#utility.yul\":4438:4607   */\n    tag_85:\n        /* \"#utility.yul\":4522:4533   */\n      0x00\n        /* \"#utility.yul\":4556:4562   */\n      dup3\n        /* \"#utility.yul\":4551:4554   */\n      dup3\n        /* \"#utility.yul\":4544:4563   */\n      mstore\n        /* \"#utility.yul\":4596:4600   */\n      0x20\n        /* \"#utility.yul\":4591:4594   */\n      dup3\n        /* \"#utility.yul\":4587:4601   */\n      add\n        /* \"#utility.yul\":4572:4601   */\n      swap1\n      pop\n        /* \"#utility.yul\":4438:4607   */\n      swap3\n      swap2\n      pop\n      pop\n      jump\t// out\n        /* \"#utility.yul\":4613:4752   */\n    tag_86:\n        /* \"#utility.yul\":4702:4708   */\n      dup3\n        /* \"#utility.yul\":4697:4700   */\n      dup2\n        /* \"#utility.yul\":4692:4695   */\n      dup4\n        /* \"#utility.yul\":4686:4709   */\n      mcopy\n        /* \"#utility.yul\":4743:4744   */\n      0x00\n        /* \"#utility.yul\":4734:4740   */\n      dup4\n        /* \"#utility.yul\":4729:4732   */\n      dup4\n        /* \"#utility.yul\":4725:4741   */\n      add\n        /* \"#utility.yul\":4718:4745   */\n      mstore\n        /* \"#utility.yul\":4613:4752   */\n      pop\n      pop\n      pop\n      jump\t// out\n        /* \"#utility.yul\":4758:5135   */\n    tag_87:\n        /* \"#utility.yul\":4846:4849   */\n      0x00\n        /* \"#utility.yul\":4874:4913   */\n      tag_162\n        /* \"#utility.yul\":4907:4912   */\n      dup3\n        /* \"#utility.yul\":4874:4913   */\n      tag_84\n      jump\t// in\n    tag_162:\n        /* \"#utility.yul\":4929:5000   */\n      tag_163\n        /* \"#utility.yul\":4993:4999   */\n      dup2\n        /* \"#utility.yul\":4988:4991   */\n      dup6\n        /* \"#utility.yul\":4929:5000   */\n      tag_85\n      jump\t// in\n    tag_163:\n        /* \"#utility.yul\":4922:5000   */\n      swap4\n      pop\n        /* \"#utility.yul\":5009:5074   */\n      tag_164\n        /* \"#utility.yul\":5067:5073   */\n      dup2\n        /* \"#utility.yul\":5062:5065   */\n      dup6\n        /* \"#utility.yul\":5055:5059   */\n      0x20\n        /* \"#utility.yul\":5048:5053   */\n      dup7\n        /* \"#utility.yul\":5044:5060   */\n      add\n        /* \"#utility.yul\":5009:5074   */\n      tag_86\n      jump\t// in\n    tag_164:\n        /* \"#utility.yul\":5099:5128   */\n      tag_165\n        /* \"#utility.yul\":5121:5127   */\n      dup2\n        /* \"#utility.yul\":5099:5128   */\n      tag_71\n      jump\t// in\n    tag_165:\n        /* \"#utility.yul\":5094:5097   */\n      dup5\n        /* \"#utility.yul\":5090:5129   */\n      add\n        /* \"#utility.yul\":5083:5129   */\n      swap2\n      pop\n        /* \"#utility.yul\":4850:5135   */\n      pop\n        /* \"#utility.yul\":4758:5135   */\n      swap3\n      swap2\n      pop\n      pop\n      jump\t// out\n        /* \"#utility.yul\":5141:5259   */\n    tag_88:\n        /* \"#utility.yul\":5228:5252   */\n      tag_167\n        /* \"#utility.yul\":5246:5251   */\n      dup2\n        /* \"#utility.yul\":5228:5252   */\n      tag_79\n      jump\t// in\n    tag_167:\n        /* \"#utility.yul\":5223:5226   */\n      dup3\n        /* \"#utility.yul\":5216:5253   */\n      mstore\n        /* \"#utility.yul\":5141:5259   */\n      pop\n      pop\n      jump\t// out\n        /* \"#utility.yul\":5265:5688   */\n    tag_27:\n        /* \"#utility.yul\":5406:5410   */\n      0x00\n        /* \"#utility.yul\":5444:5446   */\n      0x40\n        /* \"#utility.yul\":5433:5442   */\n      dup3\n        /* \"#utility.yul\":5429:5447   */\n      add\n        /* \"#utility.yul\":5421:5447   */\n      swap1\n      pop\n        /* \"#utility.yul\":5493:5502   */\n      dup2\n        /* \"#utility.yul\":5487:5491   */\n      dup2\n        /* \"#utility.yul\":5483:5503   */\n      sub\n        /* \"#utility.yul\":5479:5480   */\n      0x00\n        /* \"#utility.yul\":5468:5477   */\n      dup4\n        /* \"#utility.yul\":5464:5481   */\n      add\n        /* \"#utility.yul\":5457:5504   */\n      mstore\n        /* \"#utility.yul\":5521:5599   */\n      tag_169\n        /* \"#utility.yul\":5594:5598   */\n      dup2\n        /* \"#utility.yul\":5585:5591   */\n      dup6\n        /* \"#utility.yul\":5521:5599   */\n      tag_87\n      jump\t// in\n    tag_169:\n        /* \"#utility.yul\":5513:5599   */\n      swap1\n      pop\n        /* \"#utility.yul\":5609:5681   */\n      tag_170\n        /* \"#utility.yul\":5677:5679   */\n      0x20\n        /* \"#utility.yul\":5666:5675   */\n      dup4\n        /* \"#utility.yul\":5662:5680   */\n      add\n        /* \"#utility.yul\":5653:5659   */\n      dup5\n        /* \"#utility.yul\":5609:5681   */\n      tag_88\n      jump\t// in\n    tag_170:\n        /* \"#utility.yul\":5265:5688   */\n      swap4\n      swap3\n      pop\n      pop\n      pop\n      jump\t// out\n        /* \"#utility.yul\":5694:5916   */\n    tag_35:\n        /* \"#utility.yul\":5787:5791   */\n      0x00\n        /* \"#utility.yul\":5825:5827   */\n      0x20\n        /* \"#utility.yul\":5814:5823   */\n      dup3\n        /* \"#utility.yul\":5810:5828   */\n      add\n        /* \"#utility.yul\":5802:5828   */\n      swap1\n      pop\n        /* \"#utility.yul\":5838:5909   */\n      tag_172\n        /* \"#utility.yul\":5906:5907   */\n      0x00\n        /* \"#utility.yul\":5895:5904   */\n      dup4\n        /* \"#utility.yul\":5891:5908   */\n      add\n        /* \"#utility.yul\":5882:5888   */\n      dup5\n        /* \"#utility.yul\":5838:5909   */\n      tag_88\n      jump\t// in\n    tag_172:\n        /* \"#utility.yul\":5694:5916   */\n      swap3\n      swap2\n      pop\n      pop\n      jump\t// out\n        /* \"#utility.yul\":5922:6102   */\n    tag_89:\n        /* \"#utility.yul\":5970:6047   */\n      0x4e487b7100000000000000000000000000000000000000000000000000000000\n        /* \"#utility.yul\":5967:5968   */\n      0x00\n        /* \"#utility.yul\":5960:6048   */\n      mstore\n        /* \"#utility.yul\":6067:6071   */\n      0x22\n        /* \"#utility.yul\":6064:6065   */\n      0x04\n        /* \"#utility.yul\":6057:6072   */\n      mstore\n        /* \"#utility.yul\":6091:6095   */\n      0x24\n        /* \"#utility.yul\":6088:6089   */\n      0x00\n        /* \"#utility.yul\":6081:6096   */\n      revert\n        /* \"#utility.yul\":6108:6428   */\n    tag_50:\n        /* \"#utility.yul\":6152:6158   */\n      0x00\n        /* \"#utility.yul\":6189:6190   */\n      0x02\n        /* \"#utility.yul\":6183:6187   */\n      dup3\n        /* \"#utility.yul\":6179:6191   */\n      div\n        /* \"#utility.yul\":6169:6191   */\n      swap1\n      pop\n        /* \"#utility.yul\":6236:6237   */\n      0x01\n        /* \"#utility.yul\":6230:6234   */\n      dup3\n        /* \"#utility.yul\":6226:6238   */\n      and\n        /* \"#utility.yul\":6257:6275   */\n      dup1\n        /* \"#utility.yul\":6247:6328   */\n      tag_175\n      jumpi\n        /* \"#utility.yul\":6313:6317   */\n      0x7f\n        /* \"#utility.yul\":6305:6311   */\n      dup3\n        /* \"#utility.yul\":6301:6318   */\n      and\n        /* \"#utility.yul\":6291:6318   */\n      swap2\n      pop\n        /* \"#utility.yul\":6247:6328   */\n    tag_175:\n        /* \"#utility.yul\":6375:6377   */\n      0x20\n        /* \"#utility.yul\":6367:6373   */\n      dup3\n        /* \"#utility.yul\":6364:6378   */\n      lt\n        /* \"#utility.yul\":6344:6362   */\n      dup2\n        /* \"#utility.yul\":6341:6379   */\n      sub\n        /* \"#utility.yul\":6338:6422   */\n      tag_176\n      jumpi\n        /* \"#utility.yul\":6394:6412   */\n      tag_177\n      tag_89\n      jump\t// in\n    tag_177:\n        /* \"#utility.yul\":6338:6422   */\n    tag_176:\n        /* \"#utility.yul\":6159:6428   */\n      pop\n        /* \"#utility.yul\":6108:6428   */\n      swap2\n      swap1\n      pop\n      jump\t// out\n        /* \"#utility.yul\":6434:6575   */\n    tag_90:\n        /* \"#utility.yul\":6483:6487   */\n      0x00\n        /* \"#utility.yul\":6506:6509   */\n      dup2\n        /* \"#utility.yul\":6498:6509   */\n      swap1\n      pop\n        /* \"#utility.yul\":6529:6532   */\n      dup2\n        /* \"#utility.yul\":6526:6527   */\n      0x00\n        /* \"#utility.yul\":6519:6533   */\n      mstore\n        /* \"#utility.yul\":6563:6567   */\n      0x20\n        /* \"#utility.yul\":6560:6561   */\n      0x00\n        /* \"#utility.yul\":6550:6568   */\n      keccak256\n        /* \"#utility.yul\":6542:6568   */\n      swap1\n      pop\n        /* \"#utility.yul\":6434:6575   */\n      swap2\n      swap1\n      pop\n      jump\t// out\n        /* \"#utility.yul\":6581:6674   */\n    tag_91:\n        /* \"#utility.yul\":6618:6624   */\n      0x00\n        /* \"#utility.yul\":6665:6667   */\n      0x20\n        /* \"#utility.yul\":6660:6662   */\n      0x1f\n        /* \"#utility.yul\":6653:6658   */\n      dup4\n        /* \"#utility.yul\":6649:6663   */\n      add\n        /* \"#utility.yul\":6645:6668   */\n      div\n        /* \"#utility.yul\":6635:6668   */\n      swap1\n      pop\n        /* \"#utility.yul\":6581:6674   */\n      swap2\n      swap1\n      pop\n      jump\t// out\n        /* \"#utility.yul\":6680:6787   */\n    tag_92:\n        /* \"#utility.yul\":6724:6732   */\n      0x00\n        /* \"#utility.yul\":6774:6779   */\n      dup3\n        /* \"#utility.yul\":6768:6772   */\n      dup3\n        /* \"#utility.yul\":6764:6780   */\n      shl\n        /* \"#utility.yul\":6743:6780   */\n      swap1\n      pop\n        /* \"#utility.yul\":6680:6787   */\n      swap3\n      swap2\n      pop\n      pop\n      jump\t// out\n        /* \"#utility.yul\":6793:7186   */\n    tag_93:\n        /* \"#utility.yul\":6862:6868   */\n      0x00\n        /* \"#utility.yul\":6912:6913   */\n      0x08\n        /* \"#utility.yul\":6900:6910   */\n      dup4\n        /* \"#utility.yul\":6896:6914   */\n      mul\n        /* \"#utility.yul\":6935:7032   */\n      tag_182\n        /* \"#utility.yul\":6965:7031   */\n      0xffffffffffffffffffffffffffffffffffffffffffffffffffffffffffffffff\n        /* \"#utility.yul\":6954:6963   */\n      dup3\n        /* \"#utility.yul\":6935:7032   */\n      tag_92\n      jump\t// in\n    tag_182:\n        /* \"#utility.yul\":7053:7092   */\n      tag_183\n        /* \"#utility.yul\":7083:7091   */\n      dup7\n        /* \"#utility.yul\":7072:7081   */\n      dup4\n        /* \"#utility.yul\":7053:7092   */\n      tag_92\n      jump\t// in\n    tag_183:\n        /* \"#utility.yul\":7041:7092   */\n      swap6\n      pop\n        /* \"#utility.yul\":7125:7129   */\n      dup1\n        /* \"#utility.yul\":7121:7130   */\n      not\n        /* \"#utility.yul\":7114:7119   */\n      dup5\n        /* \"#utility.yul\":7110:7131   */\n      and\n        /* \"#utility.yul\":7101:7131   */\n      swap4\n      pop\n        /* \"#utility.yul\":7174:7178   */\n      dup1\n        /* \"#utility.yul\":7164:7172   */\n      dup7\n        /* \"#utility.yul\":7160:7179   */\n      and\n        /* \"#utility.yul\":7153:7158   */\n      dup5\n        /* \"#utility.yul\":7150:7180   */\n      or\n        /* \"#utility.yul\":7140:7180   */\n      swap3\n      pop\n        /* \"#utility.yul\":6869:7186   */\n      pop\n      pop\n        /* \"#utility.yul\":6793:7186   */\n      swap4\n      swap3\n      pop\n      pop\n      pop\n      jump\t// out\n        /* \"#utility.yul\":7192:7252   */\n    tag_94:\n        /* \"#utility.yul\":7220:7223   */\n      0x00\n        /* \"#utility.yul\":7241:7246   */\n      dup2\n        /* \"#utility.yul\":7234:7246   */\n      swap1\n      pop\n        /* \"#utility.yul\":7192:7252   */\n      swap2\n      swap1\n      pop\n      jump\t// out\n        /* \"#utility.yul\":7258:7400   */\n    tag_95:\n        /* \"#utility.yul\":7308:7317   */\n      0x00\n        /* \"#utility.yul\":7341:7394   */\n      tag_186\n        /* \"#utility.yul\":7359:7393   */\n      tag_187\n        /* \"#utility.yul\":7368:7392   */\n      tag_188\n        /* \"#utility.yul\":7386:7391   */\n      dup5\n        /* \"#utility.yul\":7368:7392   */\n      tag_79\n      jump\t// in\n    tag_188:\n        /* \"#utility.yul\":7359:7393   */\n      tag_94\n      jump\t// in\n    tag_187:\n        /* \"#utility.yul\":7341:7394   */\n      tag_79\n      jump\t// in\n    tag_186:\n        /* \"#utility.yul\":7328:7394   */\n      swap1\n      pop\n        /* \"#utility.yul\":7258:7400   */\n      swap2\n      swap1\n      pop\n      jump\t// out\n        /* \"#utility.yul\":7406:7481   */\n    tag_96:\n        /* \"#utility.yul\":7449:7452   */\n      0x00\n        /* \"#utility.yul\":7470:7475   */\n      dup2\n        /* \"#utility.yul\":7463:7475   */\n      swap1\n      pop\n        /* \"#utility.yul\":7406:7481   */\n      swap2\n      swap1\n      pop\n      jump\t// out\n        /* \"#utility.yul\":7487:7756   */\n    tag_97:\n        /* \"#utility.yul\":7597:7636   */\n      tag_191\n        /* \"#utility.yul\":7628:7635   */\n      dup4\n        /* \"#utility.yul\":7597:7636   */\n      tag_95\n      jump\t// in\n    tag_191:\n        /* \"#utility.yul\":7658:7749   */\n      tag_192\n        /* \"#utility.yul\":7707:7748   */\n      tag_193\n        /* \"#utility.yul\":7731:7747   */\n      dup3\n        /* \"#utility.yul\":7707:7748   */\n      tag_96\n      jump\t// in\n    tag_193:\n        /* \"#utility.yul\":7699:7705   */\n      dup5\n        /* \"#utility.yul\":7692:7696   */\n      dup5\n        /* \"#utility.yul\":7686:7697   */\n      sload\n        /* \"#utility.yul\":7658:7749   */\n      tag_93\n      jump\t// in\n    tag_192:\n        /* \"#utility.yul\":7652:7656   */\n      dup3\n        /* \"#utility.yul\":7645:7750   */\n      sstore\n        /* \"#utility.yul\":7563:7756   */\n      pop\n        /* \"#utility.yul\":7487:7756   */\n      pop\n      pop\n      pop\n      jump\t// out\n        /* \"#utility.yul\":7762:7835   */\n    tag_98:\n        /* \"#utility.yul\":7807:7810   */\n      0x00\n        /* \"#utility.yul\":7762:7835   */\n      swap1\n      jump\t// out\n        /* \"#utility.yul\":7841:8030   */\n    tag_99:\n        /* \"#utility.yul\":7918:7950   */\n      tag_196\n      tag_98\n      jump\t// in\n    tag_196:\n        /* \"#utility.yul\":7959:8024   */\n      tag_197\n        /* \"#utility.yul\":8017:8023   */\n      dup2\n        /* \"#utility.yul\":8009:8015   */\n      dup5\n        /* \"#utility.yul\":8003:8007   */\n      dup5\n        /* \"#utility.yul\":7959:8024   */\n      tag_97\n      jump\t// in\n    tag_197:\n        /* \"#utility.yul\":7894:8030   */\n      pop\n        /* \"#utility.yul\":7841:8030   */\n      pop\n      pop\n      jump\t// out\n        /* \"#utility.yul\":8036:8222   */\n    tag_100:\n        /* \"#utility.yul\":8096:8216   */\n    tag_199:\n        /* \"#utility.yul\":8113:8116   */\n      dup2\n        /* \"#utility.yul\":8106:8111   */\n      dup2\n        /* \"#utility.yul\":8103:8117   */\n      lt\n        /* \"#utility.yul\":8096:8216   */\n      iszero\n      tag_201\n      jumpi\n        /* \"#utility.yul\":8167:8206   */\n      tag_202\n        /* \"#utility.yul\":8204:8205   */\n      0x00\n        /* \"#utility.yul\":8197:8202   */\n      dup3\n        /* \"#utility.yul\":8167:8206   */\n      tag_99\n      jump\t// in\n    tag_202:\n        /* \"#utility.yul\":8140:8141   */\n      0x01\n        /* \"#utility.yul\":8133:8138   */\n      dup2\n        /* \"#utility.yul\":8129:8142   */\n      add\n        /* \"#utility.yul\":8120:8142   */\n      swap1\n      pop\n        /* \"#utility.yul\":8096:8216   */\n      jump(tag_199)\n    tag_201:\n        /* \"#utility.yul\":8036:8222   */\n      pop\n      pop\n      jump\t// out\n        /* \"#utility.yul\":8228:8771   */\n    tag_101:\n        /* \"#utility.yul\":8329:8331   */\n      0x1f\n        /* \"#utility.yul\":8324:8327   */\n      dup3\n        /* \"#utility.yul\":8321:8332   */\n      gt\n        /* \"#utility.yul\":8318:8764   */\n      iszero\n      tag_204\n      jumpi\n        /* \"#utility.yul\":8363:8401   */\n      tag_205\n        /* \"#utility.yul\":8395:8400   */\n      dup2\n        /* \"#utility.yul\":8363:8401   */\n      tag_90\n      jump\t// in\n    tag_205:\n        /* \"#utility.yul\":8447:8476   */\n      tag_206\n        /* \"#utility.yul\":8465:8475   */\n      dup5\n        /* \"#utility.yul\":8447:8476   */\n      tag_91\n      jump\t// in\n    tag_206:\n        /* \"#utility.yul\":8437:8445   */\n      dup2\n        /* \"#utility.yul\":8433:8477   */\n      add\n        /* \"#utility.yul\":8630:8632   */\n      0x20\n        /* \"#utility.yul\":8618:8628   */\n      dup6\n        /* \"#utility.yul\":8615:8633   */\n      lt\n        /* \"#utility.yul\":8612:8661   */\n      iszero\n      tag_207\n      jumpi\n        /* \"#utility.yul\":8651:8659   */\n      dup2\n        /* \"#utility.yul\":8636:8659   */\n      swap1\n      pop\n        /* \"#utility.yul\":8612:8661   */\n    tag_207:\n        /* \"#utility.yul\":8674:8754   */\n      tag_208\n        /* \"#utility.yul\":8730:8752   */\n      tag_209\n        /* \"#utility.yul\":8748:8751   */\n      dup6\n        /* \"#utility.yul\":8730:8752   */\n      tag_91\n      jump\t// in\n    tag_209:\n        /* \"#utility.yul\":8720:8728   */\n      dup4\n        /* \"#utility.yul\":8716:8753   */\n      add\n        /* \"#utility.yul\":8703:8714   */\n      dup3\n        /* \"#utility.yul\":8674:8754   */\n      tag_100\n      jump\t// in\n    tag_208:\n        /* \"#utility.yul\":8333:8764   */\n      pop\n      pop\n        /* \"#utility.yul\":8318:8764   */\n    tag_204:\n        /* \"#utility.yul\":8228:8771   */\n      pop\n      pop\n      pop\n      jump\t// out\n        /* \"#utility.yul\":8777:8894   */\n    tag_102:\n        /* \"#utility.yul\":8831:8839   */\n      0x00\n        /* \"#utility.yul\":8881:8886   */\n      dup3\n        /* \"#utility.yul\":8875:8879   */\n      dup3\n        /* \"#utility.yul\":8871:8887   */\n      shr\n        /* \"#utility.yul\":8850:8887   */\n      swap1\n      pop\n        /* \"#utility.yul\":8777:8894   */\n      swap3\n      swap2\n      pop\n      pop\n      jump\t// out\n        /* \"#utility.yul\":8900:9069   */\n    tag_103:\n        /* \"#utility.yul\":8944:8950   */\n      0x00\n        /* \"#utility.yul\":8977:9028   */\n      tag_212\n        /* \"#utility.yul\":9025:9026   */\n      0x00\n        /* \"#utility.yul\":9021:9027   */\n      not\n        /* \"#utility.yul\":9013:9018   */\n      dup5\n        /* \"#utility.yul\":9010:9011   */\n      0x08\n        /* \"#utility.yul\":9006:9019   */\n      mul\n        /* \"#utility.yul\":8977:9028   */\n      tag_102\n      jump\t// in\n    tag_212:\n        /* \"#utility.yul\":8973:9029   */\n      not\n        /* \"#utility.yul\":9058:9062   */\n      dup1\n        /* \"#utility.yul\":9052:9056   */\n      dup4\n        /* \"#utility.yul\":9048:9063   */\n      and\n        /* \"#utility.yul\":9038:9063   */\n      swap2\n      pop\n        /* \"#utility.yul\":8951:9069   */\n      pop\n        /* \"#utility.yul\":8900:9069   */\n      swap3\n      swap2\n      pop\n      pop\n      jump\t// out\n        /* \"#utility.yul\":9074:9369   */\n    tag_104:\n        /* \"#utility.yul\":9150:9154   */\n      0x00\n        /* \"#utility.yul\":9296:9325   */\n      tag_214\n        /* \"#utility.yul\":9321:9324   */\n      dup4\n        /* \"#utility.yul\":9315:9319   */\n      dup4\n        /* \"#utility.yul\":9296:9325   */\n      tag_103\n      jump\t// in\n    tag_214:\n        /* \"#utility.yul\":9288:9325   */\n      swap2\n      pop\n        /* \"#utility.yul\":9358:9361   */\n      dup3\n        /* \"#utility.yul\":9355:9356   */\n      0x02\n        /* \"#utility.yul\":9351:9362   */\n      mul\n        /* \"#utility.yul\":9345:9349   */\n      dup3\n        /* \"#utility.yul\":9342:9363   */\n      or\n        /* \"#utility.yul\":9334:9363   */\n      swap1\n      pop\n        /* \"#utility.yul\":9074:9369   */\n      swap3\n      swap2\n      pop\n      pop\n      jump\t// out\n        /* \"#utility.yul\":9374:10769   */\n    tag_44:\n        /* \"#utility.yul\":9491:9528   */\n      tag_216\n        /* \"#utility.yul\":9524:9527   */\n      dup3\n        /* \"#utility.yul\":9491:9528   */\n      tag_84\n      jump\t// in\n    tag_216:\n        /* \"#utility.yul\":9593:9611   */\n      0xffffffffffffffff\n        /* \"#utility.yul\":9585:9591   */\n      dup2\n        /* \"#utility.yul\":9582:9612   */\n      gt\n        /* \"#utility.yul\":9579:9635   */\n      iszero\n      tag_217\n      jumpi\n        /* \"#utility.yul\":9615:9633   */\n      tag_218\n      tag_72\n      jump\t// in\n    tag_218:\n        /* \"#utility.yul\":9579:9635   */\n    tag_217:\n        /* \"#utility.yul\":9659:9697   */\n      tag_219\n        /* \"#utility.yul\":9691:9695   */\n      dup3\n        /* \"#utility.yul\":9685:9696   */\n      sload\n        /* \"#utility.yul\":9659:9697   */\n      tag_50\n      jump\t// in\n    tag_219:\n        /* \"#utility.yul\":9744:9811   */\n      tag_220\n        /* \"#utility.yul\":9804:9810   */\n      dup3\n        /* \"#utility.yul\":9796:9802   */\n      dup3\n        /* \"#utility.yul\":9790:9794   */\n      dup6\n        /* \"#utility.yul\":9744:9811   */\n      tag_101\n      jump\t// in\n    tag_220:\n        /* \"#utility.yul\":9838:9839   */\n      0x00\n        /* \"#utility.yul\":9862:9866   */\n      0x20\n        /* \"#utility.yul\":9849:9866   */\n      swap1\n      pop\n        /* \"#utility.yul\":9894:9896   */\n      0x1f\n        /* \"#utility.yul\":9886:9892   */\n      dup4\n        /* \"#utility.yul\":9883:9897   */\n      gt\n        /* \"#utility.yul\":9911:9912   */\n      0x01\n        /* \"#utility.yul\":9906:10524   */\n      dup2\n      eq\n      tag_222\n      jumpi\n        /* \"#utility.yul\":10568:10569   */\n      0x00\n        /* \"#utility.yul\":10585:10591   */\n      dup5\n        /* \"#utility.yul\":10582:10659   */\n      iszero\n      tag_223\n      jumpi\n        /* \"#utility.yul\":10634:10643   */\n      dup3\n        /* \"#utility.yul\":10629:10632   */\n      dup8\n        /* \"#utility.yul\":10625:10644   */\n      add\n        /* \"#utility.yul\":10619:10645   */\n      mload\n        /* \"#utility.yul\":10610:10645   */\n      swap1\n      pop\n        /* \"#utility.yul\":10582:10659   */\n    tag_223:\n        /* \"#utility.yul\":10685:10752   */\n      tag_224\n        /* \"#utility.yul\":10745:10751   */\n      dup6\n        /* \"#utility.yul\":10738:10743   */\n      dup3\n        /* \"#utility.yul\":10685:10752   */\n      tag_104\n      jump\t// in\n    tag_224:\n        /* \"#utility.yul\":10679:10683   */\n      dup7\n        /* \"#utility.yul\":10672:10753   */\n      sstore\n        /* \"#utility.yul\":10541:10763   */\n      pop\n        /* \"#utility.yul\":9876:10763   */\n      jump(tag_221)\n        /* \"#utility.yul\":9906:10524   */\n    tag_222:\n        /* \"#utility.yul\":9958:9962   */\n      0x1f\n        /* \"#utility.yul\":9954:9963   */\n      not\n        /* \"#utility.yul\":9946:9952   */\n      dup5\n        /* \"#utility.yul\":9942:9964   */\n      and\n        /* \"#utility.yul\":9992:10029   */\n      tag_225\n        /* \"#utility.yul\":10024:10028   */\n      dup7\n        /* \"#utility.yul\":9992:10029   */\n      tag_90\n      jump\t// in\n    tag_225:\n        /* \"#utility.yul\":10051:10052   */\n      0x00\n        /* \"#utility.yul\":10065:10273   */\n    tag_226:\n        /* \"#utility.yul\":10079:10086   */\n      dup3\n        /* \"#utility.yul\":10076:10077   */\n      dup2\n        /* \"#utility.yul\":10073:10087   */\n      lt\n        /* \"#utility.yul\":10065:10273   */\n      iszero\n      tag_228\n      jumpi\n        /* \"#utility.yul\":10158:10167   */\n      dup5\n        /* \"#utility.yul\":10153:10156   */\n      dup10\n        /* \"#utility.yul\":10149:10168   */\n      add\n        /* \"#utility.yul\":10143:10169   */\n      mload\n        /* \"#utility.yul\":10135:10141   */\n      dup3\n        /* \"#utility.yul\":10128:10170   */\n      sstore\n        /* \"#utility.yul\":10209:10210   */\n      0x01\n        /* \"#utility.yul\":10201:10207   */\n      dup3\n        /* \"#utility.yul\":10197:10211   */\n      add\n        /* \"#utility.yul\":10187:10211   */\n      swap2\n      pop\n        /* \"#utility.yul\":10256:10258   */\n      0x20\n        /* \"#utility.yul\":10245:10254   */\n      dup6\n        /* \"#utility.yul\":10241:10259   */\n      add\n        /* \"#utility.yul\":10228:10259   */\n      swap5\n      pop\n        /* \"#utility.yul\":10102:10106   */\n      0x20\n        /* \"#utility.yul\":10099:10100   */\n      dup2\n        /* \"#utility.yul\":10095:10107   */\n      add\n        /* \"#utility.yul\":10090:10107   */\n      swap1\n      pop\n        /* \"#utility.yul\":10065:10273   */\n      jump(tag_226)\n    tag_228:\n        /* \"#utility.yul\":10301:10307   */\n      dup7\n        /* \"#utility.yul\":10292:10299   */\n      dup4\n        /* \"#utility.yul\":10289:10308   */\n      lt\n        /* \"#utility.yul\":10286:10465   */\n      iszero\n      tag_229\n      jumpi\n        /* \"#utility.yul\":10359:10368   */\n      dup5\n        /* \"#utility.yul\":10354:10357   */\n      dup10\n        /* \"#utility.yul\":10350:10369   */\n      add\n        /* \"#utility.yul\":10344:10370   */\n      mload\n        /* \"#utility.yul\":10402:10450   */\n      tag_230\n        /* \"#utility.yul\":10444:10448   */\n      0x1f\n        /* \"#utility.yul\":10436:10442   */\n      dup10\n        /* \"#utility.yul\":10432:10449   */\n      and\n        /* \"#utility.yul\":10421:10430   */\n      dup3\n        /* \"#utility.yul\":10402:10450   */\n      tag_103\n      jump\t// in\n    tag_230:\n        /* \"#utility.yul\":10394:10400   */\n      dup4\n        /* \"#utility.yul\":10387:10451   */\n      sstore\n        /* \"#utility.yul\":10309:10465   */\n      pop\n        /* \"#utility.yul\":10286:10465   */\n    tag_229:\n        /* \"#utility.yul\":10511:10512   */\n      0x01\n        /* \"#utility.yul\":10507:10508   */\n      0x02\n        /* \"#utility.yul\":10499:10505   */\n      dup9\n        /* \"#utility.yul\":10495:10509   */\n      mul\n        /* \"#utility.yul\":10491:10513   */\n      add\n        /* \"#utility.yul\":10485:10489   */\n      dup9\n        /* \"#utility.yul\":10478:10514   */\n      sstore\n        /* \"#utility.yul\":9913:10524   */\n      pop\n      pop\n      pop\n        /* \"#utility.yul\":9876:10763   */\n    tag_221:\n      pop\n        /* \"#utility.yul\":9466:10769   */\n      pop\n      pop\n      pop\n        /* \"#utility.yul\":9374:10769   */\n      pop\n      pop\n      jump\t// out\n        /* \"#utility.yul\":10775:10955   */\n    tag_105:\n        /* \"#utility.yul\":10823:10900   */\n      0x4e487b7100000000000000000000000000000000000000000000000000000000\n        /* \"#utility.yul\":10820:10821   */\n      0x00\n        /* \"#utility.yul\":10813:10901   */\n      mstore\n        /* \"#utility.yul\":10920:10924   */\n      0x11\n        /* \"#utility.yul\":10917:10918   */\n      0x04\n        /* \"#utility.yul\":10910:10925   */\n      mstore\n        /* \"#utility.yul\":10944:10948   */\n      0x24\n        /* \"#utility.yul\":10941:10942   */\n      0x00\n        /* \"#utility.yul\":10934:10949   */\n      revert\n        /* \"#utility.yul\":10961:11152   */\n    tag_48:\n        /* \"#utility.yul\":11001:11004   */\n      0x00\n        /* \"#utility.yul\":11020:11040   */\n      tag_233\n        /* \"#utility.yul\":11038:11039   */\n      dup3\n        /* \"#utility.yul\":11020:11040   */\n      tag_79\n      jump\t// in\n    tag_233:\n        /* \"#utility.yul\":11015:11040   */\n      swap2\n      pop\n        /* \"#utility.yul\":11054:11074   */\n      tag_234\n        /* \"#utility.yul\":11072:11073   */\n      dup4\n        /* \"#utility.yul\":11054:11074   */\n      tag_79\n      jump\t// in\n    tag_234:\n        /* \"#utility.yul\":11049:11074   */\n      swap3\n      pop\n        /* \"#utility.yul\":11097:11098   */\n      dup3\n        /* \"#utility.yul\":11094:11095   */\n      dup3\n        /* \"#utility.yul\":11090:11099   */\n      add\n        /* \"#utility.yul\":11083:11099   */\n      swap1\n      pop\n        /* \"#utility.yul\":11118:11121   */\n      dup1\n        /* \"#utility.yul\":11115:11116   */\n      dup3\n        /* \"#utility.yul\":11112:11122   */\n      gt\n        /* \"#utility.yul\":11109:11145   */\n      iszero\n      tag_235\n      jumpi\n        /* \"#utility.yul\":11125:11143   */\n      tag_236\n      tag_105\n      jump\t// in\n    tag_236:\n        /* \"#utility.yul\":11109:11145   */\n    tag_235:\n        /* \"#utility.yul\":10961:11152   */\n      swap3\n      swap2\n      pop\n      pop\n      jump\t// out\n\n    auxdata: 0xa2646970667358221220ac92c3e009cd7f7d6788a30387edbabc8a424e3fb6badd631a1c69e6d186c2fe64736f6c634300081a0033\n}\n",
				"bytecode": {
					"linkReferences": {},
					"object": "6080604052348015600e575f80fd5b506109ec8061001c5f395ff3fe608060405234801561000f575f80fd5b5060043610610086575f3560e01c806381a26b7e1161005957806381a26b7e146100ff578063a6b7fc5b14610130578063cd5523391461014e578063d378566c1461016c57610086565b80632fda437e1461008a5780634f2be91f146100a65780636057361d146100c4578063783f6af5146100e0575b5f80fd5b6100a4600480360381019061009f9190610521565b610188565b005b6100ae6101c4565b6040516100bb9190610593565b60405180910390f35b6100de60048036038101906100d991906105ac565b6101cc565b005b6100e86101e7565b6040516100f6929190610646565b60405180910390f35b610119600480360381019061011491906105ac565b61027e565b604051610127929190610646565b60405180910390f35b610138610333565b6040516101459190610674565b60405180910390f35b61015661033b565b6040516101639190610674565b60405180910390f35b61018660048036038101906101819190610521565b610340565b005b60405180604001604052808381526020018281525060015f820151815f0190816101b29190610887565b50602082015181600101559050505050565b5f6002905090565b805f81905550805f546101df9190610983565b5f8190555050565b6001805f0180546101f7906106ba565b80601f0160208091040260200160405190810160405280929190818152602001828054610223906106ba565b801561026e5780601f106102455761010080835404028352916020019161026e565b820191905f5260205f20905b81548152906001019060200180831161025157829003601f168201915b5050505050908060010154905082565b6003818154811061028d575f80fd5b905f5260205f2090600202015f91509050805f0180546102ac906106ba565b80601f01602080910402602001604051908101604052809291908181526020018280546102d8906106ba565b80156103235780601f106102fa57610100808354040283529160200191610323565b820191905f5260205f20905b81548152906001019060200180831161030657829003601f168201915b5050505050908060010154905082565b5f8054905090565b5f5481565b6003604051806040016040528084815260200183815250908060018154018082558091505060019003905f5260205f2090600202015f909190919091505f820151815f0190816103909190610887565b506020820151816001015550505050565b5f604051905090565b5f80fd5b5f80fd5b5f80fd5b5f80fd5b5f601f19601f8301169050919050565b7f4e487b71000000000000000000000000000000000000000000000000000000005f52604160045260245ffd5b610400826103ba565b810181811067ffffffffffffffff8211171561041f5761041e6103ca565b5b80604052505050565b5f6104316103a1565b905061043d82826103f7565b919050565b5f67ffffffffffffffff82111561045c5761045b6103ca565b5b610465826103ba565b9050602081019050919050565b828183375f83830152505050565b5f61049261048d84610442565b610428565b9050828152602081018484840111156104ae576104ad6103b6565b5b6104b9848285610472565b509392505050565b5f82601f8301126104d5576104d46103b2565b5b81356104e5848260208601610480565b91505092915050565b5f819050919050565b610500816104ee565b811461050a575f80fd5b50565b5f8135905061051b816104f7565b92915050565b5f8060408385031215610537576105366103aa565b5b5f83013567ffffffffffffffff811115610554576105536103ae565b5b610560858286016104c1565b92505060206105718582860161050d565b9150509250929050565b5f819050919050565b61058d8161057b565b82525050565b5f6020820190506105a65f830184610584565b92915050565b5f602082840312156105c1576105c06103aa565b5b5f6105ce8482850161050d565b91505092915050565b5f81519050919050565b5f82825260208201905092915050565b8281835e5f83830152505050565b5f610609826105d7565b61061381856105e1565b93506106238185602086016105f1565b61062c816103ba565b840191505092915050565b610640816104ee565b82525050565b5f6040820190508181035f83015261065e81856105ff565b905061066d6020830184610637565b9392505050565b5f6020820190506106875f830184610637565b92915050565b7f4e487b71000000000000000000000000000000000000000000000000000000005f52602260045260245ffd5b5f60028204905060018216806106d157607f821691505b6020821081036106e4576106e361068d565b5b50919050565b5f819050815f5260205f209050919050565b5f6020601f8301049050919050565b5f82821b905092915050565b5f600883026107467fffffffffffffffffffffffffffffffffffffffffffffffffffffffffffffffff8261070b565b610750868361070b565b95508019841693508086168417925050509392505050565b5f819050919050565b5f61078b610786610781846104ee565b610768565b6104ee565b9050919050565b5f819050919050565b6107a483610771565b6107b86107b082610792565b848454610717565b825550505050565b5f90565b6107cc6107c0565b6107d781848461079b565b505050565b5b818110156107fa576107ef5f826107c4565b6001810190506107dd565b5050565b601f82111561083f57610810816106ea565b610819846106fc565b81016020851015610828578190505b61083c610834856106fc565b8301826107dc565b50505b505050565b5f82821c905092915050565b5f61085f5f1984600802610844565b1980831691505092915050565b5f6108778383610850565b9150826002028217905092915050565b610890826105d7565b67ffffffffffffffff8111156108a9576108a86103ca565b5b6108b382546106ba565b6108be8282856107fe565b5f60209050601f8311600181146108ef575f84156108dd578287015190505b6108e7858261086c565b86555061094e565b601f1984166108fd866106ea565b5f5b82811015610924578489015182556001820191506020850194506020810190506108ff565b86831015610941578489015161093d601f891682610850565b8355505b6001600288020188555050505b505050505050565b7f4e487b71000000000000000000000000000000000000000000000000000000005f52601160045260245ffd5b5f61098d826104ee565b9150610998836104ee565b92508282019050808211156109b0576109af610956565b5b9291505056fea2646970667358221220ac92c3e009cd7f7d6788a30387edbabc8a424e3fb6badd631a1c69e6d186c2fe64736f6c634300081a0033",
					"opcodes": "PUSH1 0x80 PUSH1 0x40 MSTORE CALLVALUE DUP1 ISZERO PUSH1 0xE JUMPI PUSH0 DUP1 REVERT JUMPDEST POP PUSH2 0x9EC DUP1 PUSH2 0x1C PUSH0 CODECOPY PUSH0 RETURN INVALID PUSH1 0x80 PUSH1 0x40 MSTORE CALLVALUE DUP1 ISZERO PUSH2 0xF JUMPI PUSH0 DUP1 REVERT JUMPDEST POP PUSH1 0x4 CALLDATASIZE LT PUSH2 0x86 JUMPI PUSH0 CALLDATALOAD PUSH1 0xE0 SHR DUP1 PUSH4 0x81A26B7E GT PUSH2 0x59 JUMPI DUP1 PUSH4 0x81A26B7E EQ PUSH2 0xFF JUMPI DUP1 PUSH4 0xA6B7FC5B EQ PUSH2 0x130 JUMPI DUP1 PUSH4 0xCD552339 EQ PUSH2 0x14E JUMPI DUP1 PUSH4 0xD378566C EQ PUSH2 0x16C JUMPI PUSH2 0x86 JUMP JUMPDEST DUP1 PUSH4 0x2FDA437E EQ PUSH2 0x8A JUMPI DUP1 PUSH4 0x4F2BE91F EQ PUSH2 0xA6 JUMPI DUP1 PUSH4 0x6057361D EQ PUSH2 0xC4 JUMPI DUP1 PUSH4 0x783F6AF5 EQ PUSH2 0xE0 JUMPI JUMPDEST PUSH0 DUP1 REVERT JUMPDEST PUSH2 0xA4 PUSH1 0x4 DUP1 CALLDATASIZE SUB DUP2 ADD SWAP1 PUSH2 0x9F SWAP2 SWAP1 PUSH2 0x521 JUMP JUMPDEST PUSH2 0x188 JUMP JUMPDEST STOP JUMPDEST PUSH2 0xAE PUSH2 0x1C4 JUMP JUMPDEST PUSH1 0x40 MLOAD PUSH2 0xBB SWAP2 SWAP1 PUSH2 0x593 JUMP JUMPDEST PUSH1 0x40 MLOAD DUP1 SWAP2 SUB SWAP1 RETURN JUMPDEST PUSH2 0xDE PUSH1 0x4 DUP1 CALLDATASIZE SUB DUP2 ADD SWAP1 PUSH2 0xD9 SWAP2 SWAP1 PUSH2 0x5AC JUMP JUMPDEST PUSH2 0x1CC JUMP JUMPDEST STOP JUMPDEST PUSH2 0xE8 PUSH2 0x1E7 JUMP JUMPDEST PUSH1 0x40 MLOAD PUSH2 0xF6 SWAP3 SWAP2 SWAP1 PUSH2 0x646 JUMP JUMPDEST PUSH1 0x40 MLOAD DUP1 SWAP2 SUB SWAP1 RETURN JUMPDEST PUSH2 0x119 PUSH1 0x4 DUP1 CALLDATASIZE SUB DUP2 ADD SWAP1 PUSH2 0x114 SWAP2 SWAP1 PUSH2 0x5AC JUMP JUMPDEST PUSH2 0x27E JUMP JUMPDEST PUSH1 0x40 MLOAD PUSH2 0x127 SWAP3 SWAP2 SWAP1 PUSH2 0x646 JUMP JUMPDEST PUSH1 0x40 MLOAD DUP1 SWAP2 SUB SWAP1 RETURN JUMPDEST PUSH2 0x138 PUSH2 0x333 JUMP JUMPDEST PUSH1 0x40 MLOAD PUSH2 0x145 SWAP2 SWAP1 PUSH2 0x674 JUMP JUMPDEST PUSH1 0x40 MLOAD DUP1 SWAP2 SUB SWAP1 RETURN JUMPDEST PUSH2 0x156 PUSH2 0x33B JUMP JUMPDEST PUSH1 0x40 MLOAD PUSH2 0x163 SWAP2 SWAP1 PUSH2 0x674 JUMP JUMPDEST PUSH1 0x40 MLOAD DUP1 SWAP2 SUB SWAP1 RETURN JUMPDEST PUSH2 0x186 PUSH1 0x4 DUP1 CALLDATASIZE SUB DUP2 ADD SWAP1 PUSH2 0x181 SWAP2 SWAP1 PUSH2 0x521 JUMP JUMPDEST PUSH2 0x340 JUMP JUMPDEST STOP JUMPDEST PUSH1 0x40 MLOAD DUP1 PUSH1 0x40 ADD PUSH1 0x40 MSTORE DUP1 DUP4 DUP2 MSTORE PUSH1 0x20 ADD DUP3 DUP2 MSTORE POP PUSH1 0x1 PUSH0 DUP3 ADD MLOAD DUP2 PUSH0 ADD SWAP1 DUP2 PUSH2 0x1B2 SWAP2 SWAP1 PUSH2 0x887 JUMP JUMPDEST POP PUSH1 0x20 DUP3 ADD MLOAD DUP2 PUSH1 0x1 ADD SSTORE SWAP1 POP POP POP POP JUMP JUMPDEST PUSH0 PUSH1 0x2 SWAP1 POP SWAP1 JUMP JUMPDEST DUP1 PUSH0 DUP2 SWAP1 SSTORE POP DUP1 PUSH0 SLOAD PUSH2 0x1DF SWAP2 SWAP1 PUSH2 0x983 JUMP JUMPDEST PUSH0 DUP2 SWAP1 SSTORE POP POP JUMP JUMPDEST PUSH1 0x1 DUP1 PUSH0 ADD DUP1 SLOAD PUSH2 0x1F7 SWAP1 PUSH2 0x6BA JUMP JUMPDEST DUP1 PUSH1 0x1F ADD PUSH1 0x20 DUP1 SWAP2 DIV MUL PUSH1 0x20 ADD PUSH1 0x40 MLOAD SWAP1 DUP2 ADD PUSH1 0x40 MSTORE DUP1 SWAP3 SWAP2 SWAP1 DUP2 DUP2 MSTORE PUSH1 0x20 ADD DUP3 DUP1 SLOAD PUSH2 0x223 SWAP1 PUSH2 0x6BA JUMP JUMPDEST DUP1 ISZERO PUSH2 0x26E JUMPI DUP1 PUSH1 0x1F LT PUSH2 0x245 JUMPI PUSH2 0x100 DUP1 DUP4 SLOAD DIV MUL DUP4 MSTORE SWAP2 PUSH1 0x20 ADD SWAP2 PUSH2 0x26E JUMP JUMPDEST DUP3 ADD SWAP2 SWAP1 PUSH0 MSTORE PUSH1 0x20 PUSH0 KECCAK256 SWAP1 JUMPDEST DUP2 SLOAD DUP2 MSTORE SWAP1 PUSH1 0x1 ADD SWAP1 PUSH1 0x20 ADD DUP1 DUP4 GT PUSH2 0x251 JUMPI DUP3 SWAP1 SUB PUSH1 0x1F AND DUP3 ADD SWAP2 JUMPDEST POP POP POP POP POP SWAP1 DUP1 PUSH1 0x1 ADD SLOAD SWAP1 POP DUP3 JUMP JUMPDEST PUSH1 0x3 DUP2 DUP2 SLOAD DUP2 LT PUSH2 0x28D JUMPI PUSH0 DUP1 REVERT JUMPDEST SWAP1 PUSH0 MSTORE PUSH1 0x20 PUSH0 KECCAK256 SWAP1 PUSH1 0x2 MUL ADD PUSH0 SWAP2 POP SWAP1 POP DUP1 PUSH0 ADD DUP1 SLOAD PUSH2 0x2AC SWAP1 PUSH2 0x6BA JUMP JUMPDEST DUP1 PUSH1 0x1F ADD PUSH1 0x20 DUP1 SWAP2 DIV MUL PUSH1 0x20 ADD PUSH1 0x40 MLOAD SWAP1 DUP2 ADD PUSH1 0x40 MSTORE DUP1 SWAP3 SWAP2 SWAP1 DUP2 DUP2 MSTORE PUSH1 0x20 ADD DUP3 DUP1 SLOAD PUSH2 0x2D8 SWAP1 PUSH2 0x6BA JUMP JUMPDEST DUP1 ISZERO PUSH2 0x323 JUMPI DUP1 PUSH1 0x1F LT PUSH2 0x2FA JUMPI PUSH2 0x100 DUP1 DUP4 SLOAD DIV MUL DUP4 MSTORE SWAP2 PUSH1 0x20 ADD SWAP2 PUSH2 0x323 JUMP JUMPDEST DUP3 ADD SWAP2 SWAP1 PUSH0 MSTORE PUSH1 0x20 PUSH0 KECCAK256 SWAP1 JUMPDEST DUP2 SLOAD DUP2 MSTORE SWAP1 PUSH1 0x1 ADD SWAP1 PUSH1 0x20 ADD DUP1 DUP4 GT PUSH2 0x306 JUMPI DUP3 SWAP1 SUB PUSH1 0x1F AND DUP3 ADD SWAP2 JUMPDEST POP POP POP POP POP SWAP1 DUP1 PUSH1 0x1 ADD SLOAD SWAP1 POP DUP3 JUMP JUMPDEST PUSH0 DUP1 SLOAD SWAP1 POP SWAP1 JUMP JUMPDEST PUSH0 SLOAD DUP2 JUMP JUMPDEST PUSH1 0x3 PUSH1 0x40 MLOAD DUP1 PUSH1 0x40 ADD PUSH1 0x40 MSTORE DUP1 DUP5 DUP2 MSTORE PUSH1 0x20 ADD DUP4 DUP2 MSTORE POP SWAP1 DUP1 PUSH1 0x1 DUP2 SLOAD ADD DUP1 DUP3 SSTORE DUP1 SWAP2 POP POP PUSH1 0x1 SWAP1 SUB SWAP1 PUSH0 MSTORE PUSH1 0x20 PUSH0 KECCAK256 SWAP1 PUSH1 0x2 MUL ADD PUSH0 SWAP1 SWAP2 SWAP1 SWAP2 SWAP1 SWAP2 POP PUSH0 DUP3 ADD MLOAD DUP2 PUSH0 ADD SWAP1 DUP2 PUSH2 0x390 SWAP2 SWAP1 PUSH2 0x887 JUMP JUMPDEST POP PUSH1 0x20 DUP3 ADD MLOAD DUP2 PUSH1 0x1 ADD SSTORE POP POP POP POP JUMP JUMPDEST PUSH0 PUSH1 0x40 MLOAD SWAP1 POP SWAP1 JUMP JUMPDEST PUSH0 DUP1 REVERT JUMPDEST PUSH0 DUP1 REVERT JUMPDEST PUSH0 DUP1 REVERT JUMPDEST PUSH0 DUP1 REVERT JUMPDEST PUSH0 PUSH1 0x1F NOT PUSH1 0x1F DUP4 ADD AND SWAP1 POP SWAP2 SWAP1 POP JUMP JUMPDEST PUSH32 0x4E487B7100000000000000000000000000000000000000000000000000000000 PUSH0 MSTORE PUSH1 0x41 PUSH1 0x4 MSTORE PUSH1 0x24 PUSH0 REVERT JUMPDEST PUSH2 0x400 DUP3 PUSH2 0x3BA JUMP JUMPDEST DUP2 ADD DUP2 DUP2 LT PUSH8 0xFFFFFFFFFFFFFFFF DUP3 GT OR ISZERO PUSH2 0x41F JUMPI PUSH2 0x41E PUSH2 0x3CA JUMP JUMPDEST JUMPDEST DUP1 PUSH1 0x40 MSTORE POP POP POP JUMP JUMPDEST PUSH0 PUSH2 0x431 PUSH2 0x3A1 JUMP JUMPDEST SWAP1 POP PUSH2 0x43D DUP3 DUP3 PUSH2 0x3F7 JUMP JUMPDEST SWAP2 SWAP1 POP JUMP JUMPDEST PUSH0 PUSH8 0xFFFFFFFFFFFFFFFF DUP3 GT ISZERO PUSH2 0x45C JUMPI PUSH2 0x45B PUSH2 0x3CA JUMP JUMPDEST JUMPDEST PUSH2 0x465 DUP3 PUSH2 0x3BA JUMP JUMPDEST SWAP1 POP PUSH1 0x20 DUP2 ADD SWAP1 POP SWAP2 SWAP1 POP JUMP JUMPDEST DUP3 DUP2 DUP4 CALLDATACOPY PUSH0 DUP4 DUP4 ADD MSTORE POP POP POP JUMP JUMPDEST PUSH0 PUSH2 0x492 PUSH2 0x48D DUP5 PUSH2 0x442 JUMP JUMPDEST PUSH2 0x428 JUMP JUMPDEST SWAP1 POP DUP3 DUP2 MSTORE PUSH1 0x20 DUP2 ADD DUP5 DUP5 DUP5 ADD GT ISZERO PUSH2 0x4AE JUMPI PUSH2 0x4AD PUSH2 0x3B6 JUMP JUMPDEST JUMPDEST PUSH2 0x4B9 DUP5 DUP3 DUP6 PUSH2 0x472 JUMP JUMPDEST POP SWAP4 SWAP3 POP POP POP JUMP JUMPDEST PUSH0 DUP3 PUSH1 0x1F DUP4 ADD SLT PUSH2 0x4D5 JUMPI PUSH2 0x4D4 PUSH2 0x3B2 JUMP JUMPDEST JUMPDEST DUP2 CALLDATALOAD PUSH2 0x4E5 DUP5 DUP3 PUSH1 0x20 DUP7 ADD PUSH2 0x480 JUMP JUMPDEST SWAP2 POP POP SWAP3 SWAP2 POP POP JUMP JUMPDEST PUSH0 DUP2 SWAP1 POP SWAP2 SWAP1 POP JUMP JUMPDEST PUSH2 0x500 DUP2 PUSH2 0x4EE JUMP JUMPDEST DUP2 EQ PUSH2 0x50A JUMPI PUSH0 DUP1 REVERT JUMPDEST POP JUMP JUMPDEST PUSH0 DUP2 CALLDATALOAD SWAP1 POP PUSH2 0x51B DUP2 PUSH2 0x4F7 JUMP JUMPDEST SWAP3 SWAP2 POP POP JUMP JUMPDEST PUSH0 DUP1 PUSH1 0x40 DUP4 DUP6 SUB SLT ISZERO PUSH2 0x537 JUMPI PUSH2 0x536 PUSH2 0x3AA JUMP JUMPDEST JUMPDEST PUSH0 DUP4 ADD CALLDATALOAD PUSH8 0xFFFFFFFFFFFFFFFF DUP2 GT ISZERO PUSH2 0x554 JUMPI PUSH2 0x553 PUSH2 0x3AE JUMP JUMPDEST JUMPDEST PUSH2 0x560 DUP6 DUP3 DUP7 ADD PUSH2 0x4C1 JUMP JUMPDEST SWAP3 POP POP PUSH1 0x20 PUSH2 0x571 DUP6 DUP3 DUP7 ADD PUSH2 0x50D JUMP JUMPDEST SWAP2 POP POP SWAP3 POP SWAP3 SWAP1 POP JUMP JUMPDEST PUSH0 DUP2 SWAP1 POP SWAP2 SWAP1 POP JUMP JUMPDEST PUSH2 0x58D DUP2 PUSH2 0x57B JUMP JUMPDEST DUP3 MSTORE POP POP JUMP JUMPDEST PUSH0 PUSH1 0x20 DUP3 ADD SWAP1 POP PUSH2 0x5A6 PUSH0 DUP4 ADD DUP5 PUSH2 0x584 JUMP JUMPDEST SWAP3 SWAP2 POP POP JUMP JUMPDEST PUSH0 PUSH1 0x20 DUP3 DUP5 SUB SLT ISZERO PUSH2 0x5C1 JUMPI PUSH2 0x5C0 PUSH2 0x3AA JUMP JUMPDEST JUMPDEST PUSH0 PUSH2 0x5CE DUP5 DUP3 DUP6 ADD PUSH2 0x50D JUMP JUMPDEST SWAP2 POP POP SWAP3 SWAP2 POP POP JUMP JUMPDEST PUSH0 DUP2 MLOAD SWAP1 POP SWAP2 SWAP1 POP JUMP JUMPDEST PUSH0 DUP3 DUP3 MSTORE PUSH1 0x20 DUP3 ADD SWAP1 POP SWAP3 SWAP2 POP POP JUMP JUMPDEST DUP3 DUP2 DUP4 MCOPY PUSH0 DUP4 DUP4 ADD MSTORE POP POP POP JUMP JUMPDEST PUSH0 PUSH2 0x609 DUP3 PUSH2 0x5D7 JUMP JUMPDEST PUSH2 0x613 DUP2 DUP6 PUSH2 0x5E1 JUMP JUMPDEST SWAP4 POP PUSH2 0x623 DUP2 DUP6 PUSH1 0x20 DUP7 ADD PUSH2 0x5F1 JUMP JUMPDEST PUSH2 0x62C DUP2 PUSH2 0x3BA JUMP JUMPDEST DUP5 ADD SWAP2 POP POP SWAP3 SWAP2 POP POP JUMP JUMPDEST PUSH2 0x640 DUP2 PUSH2 0x4EE JUMP JUMPDEST DUP3 MSTORE POP POP JUMP JUMPDEST PUSH0 PUSH1 0x40 DUP3 ADD SWAP1 POP DUP2 DUP2 SUB PUSH0 DUP4 ADD MSTORE PUSH2 0x65E DUP2 DUP6 PUSH2 0x5FF JUMP JUMPDEST SWAP1 POP PUSH2 0x66D PUSH1 0x20 DUP4 ADD DUP5 PUSH2 0x637 JUMP JUMPDEST SWAP4 SWAP3 POP POP POP JUMP JUMPDEST PUSH0 PUSH1 0x20 DUP3 ADD SWAP1 POP PUSH2 0x687 PUSH0 DUP4 ADD DUP5 PUSH2 0x637 JUMP JUMPDEST SWAP3 SWAP2 POP POP JUMP JUMPDEST PUSH32 0x4E487B7100000000000000000000000000000000000000000000000000000000 PUSH0 MSTORE PUSH1 0x22 PUSH1 0x4 MSTORE PUSH1 0x24 PUSH0 REVERT JUMPDEST PUSH0 PUSH1 0x2 DUP3 DIV SWAP1 POP PUSH1 0x1 DUP3 AND DUP1 PUSH2 0x6D1 JUMPI PUSH1 0x7F DUP3 AND SWAP2 POP JUMPDEST PUSH1 0x20 DUP3 LT DUP2 SUB PUSH2 0x6E4 JUMPI PUSH2 0x6E3 PUSH2 0x68D JUMP JUMPDEST JUMPDEST POP SWAP2 SWAP1 POP JUMP JUMPDEST PUSH0 DUP2 SWAP1 POP DUP2 PUSH0 MSTORE PUSH1 0x20 PUSH0 KECCAK256 SWAP1 POP SWAP2 SWAP1 POP JUMP JUMPDEST PUSH0 PUSH1 0x20 PUSH1 0x1F DUP4 ADD DIV SWAP1 POP SWAP2 SWAP1 POP JUMP JUMPDEST PUSH0 DUP3 DUP3 SHL SWAP1 POP SWAP3 SWAP2 POP POP JUMP JUMPDEST PUSH0 PUSH1 0x8 DUP4 MUL PUSH2 0x746 PUSH32 0xFFFFFFFFFFFFFFFFFFFFFFFFFFFFFFFFFFFFFFFFFFFFFFFFFFFFFFFFFFFFFFFF DUP3 PUSH2 0x70B JUMP JUMPDEST PUSH2 0x750 DUP7 DUP4 PUSH2 0x70B JUMP JUMPDEST SWAP6 POP DUP1 NOT DUP5 AND SWAP4 POP DUP1 DUP7 AND DUP5 OR SWAP3 POP POP POP SWAP4 SWAP3 POP POP POP JUMP JUMPDEST PUSH0 DUP2 SWAP1 POP SWAP2 SWAP1 POP JUMP JUMPDEST PUSH0 PUSH2 0x78B PUSH2 0x786 PUSH2 0x781 DUP5 PUSH2 0x4EE JUMP JUMPDEST PUSH2 0x768 JUMP JUMPDEST PUSH2 0x4EE JUMP JUMPDEST SWAP1 POP SWAP2 SWAP1 POP JUMP JUMPDEST PUSH0 DUP2 SWAP1 POP SWAP2 SWAP1 POP JUMP JUMPDEST PUSH2 0x7A4 DUP4 PUSH2 0x771 JUMP JUMPDEST PUSH2 0x7B8 PUSH2 0x7B0 DUP3 PUSH2 0x792 JUMP JUMPDEST DUP5 DUP5 SLOAD PUSH2 0x717 JUMP JUMPDEST DUP3 SSTORE POP POP POP POP JUMP JUMPDEST PUSH0 SWAP1 JUMP JUMPDEST PUSH2 0x7CC PUSH2 0x7C0 JUMP JUMPDEST PUSH2 0x7D7 DUP2 DUP5 DUP5 PUSH2 0x79B JUMP JUMPDEST POP POP POP JUMP JUMPDEST JUMPDEST DUP2 DUP2 LT ISZERO PUSH2 0x7FA JUMPI PUSH2 0x7EF PUSH0 DUP3 PUSH2 0x7C4 JUMP JUMPDEST PUSH1 0x1 DUP2 ADD SWAP1 POP PUSH2 0x7DD JUMP JUMPDEST POP POP JUMP JUMPDEST PUSH1 0x1F DUP3 GT ISZERO PUSH2 0x83F JUMPI PUSH2 0x810 DUP2 PUSH2 0x6EA JUMP JUMPDEST PUSH2 0x819 DUP5 PUSH2 0x6FC JUMP JUMPDEST DUP2 ADD PUSH1 0x20 DUP6 LT ISZERO PUSH2 0x828 JUMPI DUP2 SWAP1 POP JUMPDEST PUSH2 0x83C PUSH2 0x834 DUP6 PUSH2 0x6FC JUMP JUMPDEST DUP4 ADD DUP3 PUSH2 0x7DC JUMP JUMPDEST POP POP JUMPDEST POP POP POP JUMP JUMPDEST PUSH0 DUP3 DUP3 SHR SWAP1 POP SWAP3 SWAP2 POP POP JUMP JUMPDEST PUSH0 PUSH2 0x85F PUSH0 NOT DUP5 PUSH1 0x8 MUL PUSH2 0x844 JUMP JUMPDEST NOT DUP1 DUP4 AND SWAP2 POP POP SWAP3 SWAP2 POP POP JUMP JUMPDEST PUSH0 PUSH2 0x877 DUP4 DUP4 PUSH2 0x850 JUMP JUMPDEST SWAP2 POP DUP3 PUSH1 0x2 MUL DUP3 OR SWAP1 POP SWAP3 SWAP2 POP POP JUMP JUMPDEST PUSH2 0x890 DUP3 PUSH2 0x5D7 JUMP JUMPDEST PUSH8 0xFFFFFFFFFFFFFFFF DUP2 GT ISZERO PUSH2 0x8A9 JUMPI PUSH2 0x8A8 PUSH2 0x3CA JUMP JUMPDEST JUMPDEST PUSH2 0x8B3 DUP3 SLOAD PUSH2 0x6BA JUMP JUMPDEST PUSH2 0x8BE DUP3 DUP3 DUP6 PUSH2 0x7FE JUMP JUMPDEST PUSH0 PUSH1 0x20 SWAP1 POP PUSH1 0x1F DUP4 GT PUSH1 0x1 DUP2 EQ PUSH2 0x8EF JUMPI PUSH0 DUP5 ISZERO PUSH2 0x8DD JUMPI DUP3 DUP8 ADD MLOAD SWAP1 POP JUMPDEST PUSH2 0x8E7 DUP6 DUP3 PUSH2 0x86C JUMP JUMPDEST DUP7 SSTORE POP PUSH2 0x94E JUMP JUMPDEST PUSH1 0x1F NOT DUP5 AND PUSH2 0x8FD DUP7 PUSH2 0x6EA JUMP JUMPDEST PUSH0 JUMPDEST DUP3 DUP2 LT ISZERO PUSH2 0x924 JUMPI DUP5 DUP10 ADD MLOAD DUP3 SSTORE PUSH1 0x1 DUP3 ADD SWAP2 POP PUSH1 0x20 DUP6 ADD SWAP5 POP PUSH1 0x20 DUP2 ADD SWAP1 POP PUSH2 0x8FF JUMP JUMPDEST DUP7 DUP4 LT ISZERO PUSH2 0x941 JUMPI DUP5 DUP10 ADD MLOAD PUSH2 0x93D PUSH1 0x1F DUP10 AND DUP3 PUSH2 0x850 JUMP JUMPDEST DUP4 SSTORE POP JUMPDEST PUSH1 0x1 PUSH1 0x2 DUP9 MUL ADD DUP9 SSTORE POP POP POP JUMPDEST POP POP POP POP POP POP JUMP JUMPDEST PUSH32 0x4E487B7100000000000000000000000000000000000000000000000000000000 PUSH0 MSTORE PUSH1 0x11 PUSH1 0x4 MSTORE PUSH1 0x24 PUSH0 REVERT JUMPDEST PUSH0 PUSH2 0x98D DUP3 PUSH2 0x4EE JUMP JUMPDEST SWAP2 POP PUSH2 0x998 DUP4 PUSH2 0x4EE JUMP JUMPDEST SWAP3 POP DUP3 DUP3 ADD SWAP1 POP DUP1 DUP3 GT ISZERO PUSH2 0x9B0 JUMPI PUSH2 0x9AF PUSH2 0x956 JUMP JUMPDEST JUMPDEST SWAP3 SWAP2 POP POP JUMP INVALID LOG2 PUSH5 0x6970667358 0x22 SLT KECCAK256 0xAC SWAP3 0xC3 0xE0 MULMOD 0xCD PUSH32 0x7D6788A30387EDBABC8A424E3FB6BADD631A1C69E6D186C2FE64736F6C634300 ADDMOD BYTE STOP CALLER "
				},
				"gasEstimates": {
					"creation": {
						"codeDepositCost": "508000",
						"executionCost": "541",
						"totalCost": "508541"
					},
					"external": {
						"add()": "355",
						"myFavNum()": "2468",
						"people()": "infinite",
						"peoplesArray(uint256)": "infinite",
						"retrive()": "2454",
						"setPeopleArray(string,uint256)": "infinite",
						"setPerson(string,uint256)": "infinite",
						"store(uint256)": "infinite"
					}
				},
				"methodIdentifiers": {
					"add()": "4f2be91f",
					"myFavNum()": "cd552339",
					"people()": "783f6af5",
					"peoplesArray(uint256)": "81a26b7e",
					"retrive()": "a6b7fc5b",
					"setPeopleArray(string,uint256)": "d378566c",
					"setPerson(string,uint256)": "2fda437e",
					"store(uint256)": "6057361d"
				}
			},
			"storageLayout": {
				"storage": [
					{
						"astId": 3,
						"contract": "contracts/SimpleStorage.sol:SimpleStorage",
						"label": "myFavNum",
						"offset": 0,
						"slot": "0",
						"type": "t_uint256"
					},
					{
						"astId": 45,
						"contract": "contracts/SimpleStorage.sol:SimpleStorage",
						"label": "people",
						"offset": 0,
						"slot": "1",
						"type": "t_struct(Person)42_storage"
					},
					{
						"astId": 64,
						"contract": "contracts/SimpleStorage.sol:SimpleStorage",
						"label": "peoplesArray",
						"offset": 0,
						"slot": "3",
						"type": "t_array(t_struct(Person)42_storage)dyn_storage"
					}
				],
				"types": {
					"t_array(t_struct(Person)42_storage)dyn_storage": {
						"base": "t_struct(Person)42_storage",
						"encoding": "dynamic_array",
						"label": "struct SimpleStorage.Person[]",
						"numberOfBytes": "32"
					},
					"t_string_storage": {
						"encoding": "bytes",
						"label": "string",
						"numberOfBytes": "32"
					},
					"t_struct(Person)42_storage": {
						"encoding": "inplace",
						"label": "struct SimpleStorage.Person",
						"members": [
							{
								"astId": 39,
								"contract": "contracts/SimpleStorage.sol:SimpleStorage",
								"label": "firstName",
								"offset": 0,
								"slot": "0",
								"type": "t_string_storage"
							},
							{
								"astId": 41,
								"contract": "contracts/SimpleStorage.sol:SimpleStorage",
								"label": "age",
								"offset": 0,
								"slot": "1",
								"type": "t_uint256"
							}
						],
						"numberOfBytes": "64"
					},
					"t_uint256": {
						"encoding": "inplace",
						"label": "uint256",
						"numberOfBytes": "32"
					}
				}
			},
			"userdoc": {
				"kind": "user",
				"methods": {},
				"version": 1
			}
		}
	}
}